:020000040800F2
:10000000480E002021020008D51B000899140008A2
:1000100031190008690C00086F2400080000000076
:10002000000000000000000000000000D31D0008D8
:10003000890D000800000000E11C000809220008EA
:100040003B0200083B0200083B0200083B0200089C
:100050003B0200083B020008E10F0008F30F000814
:10006000051000081B1000082D1000083B020008B6
:100070003B0200083B0200083B0200083B0200086C
:100080003B0200083B0200083B0200083B0200085C
:100090003B0200083B0200083B0200083F1000083A
:1000A0003B020008E12200083B0200083B02000876
:1000B0003B0200083B0200083B0200083B0200082C
:1000C0003B0200081D1500089D1400083B020008B3
:1000D0003B020008512300087D2300083B02000872
:1000E0003B0200083B0200083B0200083B020008FC
:1000F0003B0200083B0200083B0200083B020008EC
:100100003B0200083B0200083B0200083B020008DB
:100110003B0200083B0200080523000829230008D1
:100120003B0200083B0200083B0200083B020008BB
:100130003B0200083B0200083B0200083B020008AB
:100140003B0200083B0200083B0200083B0200089B
:100150003B0200083B020008510D00083B0200086A
:100160003B0200083B0200083B0200083B0200087B
:100170003B0200083B0200083B0200083B0200086B
:1001800000F002F800F03CF80AA090E8000C82446D
:100190008344AAF10107DA4501D100F031F8AFF24A
:1001A000090EBAE80F0013F0010F18BFFB1A43F055
:1001B00001031847C8380000E8380000103A24BF8F
:1001C00078C878C1FAD8520724BF30C830C144BFBC
:1001D00004680C60704700000023002400250026FE
:1001E000103A28BF78C1FBD8520728BF30C148BF9A
:1001F0000B6070471FB503F011FB1FBD10B510BD9C
:1002000000F0F3F81146FFF7F5FF02F003FE00F0EF
:1002100011F903B4FFF7F2FF03BC02F03BF9000051
:100220000948804709480047FEE7FEE7FEE7FEE78A
:10023000FEE7FEE7FEE7FEE7FEE7FEE704480549C6
:10024000054A064B704700000D2200088101000896
:1002500048080020480E0020480A0020480A0020D4
:100260007047032A40F2308010F0030C00F0158034
:1002700011F8013BBCF1020F624498BF11F801CBA9
:1002800000F8013B38BF11F8013BA2F1040298BF0E
:1002900000F801CB38BF00F8013B11F0030300F078
:1002A0004B80083AC0F0088051F8043B083A51F8F6
:1002B00004CBA0E80810F5E7121D5CBF51F8043B21
:1002C00040F8043BAFF30080D20724BF11F8013B94
:1002D00011F801CB48BF11F8012B24BF00F8013BF6
:1002E00000F801CB48BF00F8012B70474FF0000227
:1002F0000429C0F0128010F0030C00F05180CCF102
:10030000040CBCF1020F18BF00F8012BA8BF20F8A5
:10031000022BA1EB0C0100F043B85FEAC17C24BFC3
:1003200000F8012B00F8012B48BF00F8012B7047A3
:10033000704770477047704710B5203AC0F00B8087
:10034000B1E81850203AA0E81850B1E81850A0E8D9
:100350001850BFF4F5AF5FEA027C24BFB1E8185033
:10036000A0E8185044BF18C918C0BDE810405FEAA3
:10037000827C24BF51F8043B40F8043B08BF70471F
:10038000D20728BF31F8023B48BF11F8012B28BF24
:1003900020F8023B48BF00F8012B70474FF00002E5
:1003A00000B5134694469646203922BFA0E80C506B
:1003B000A0E80C50B1F12001BFF4F7AF090728BF46
:1003C000A0E80C5048BF0CC05DF804EB890028BFC2
:1003D00040F8042B08BF704748BF20F8022B11F0EB
:1003E000804F18BF00F8012B7047754600F02CF8BD
:1003F000AE4605006946534620F00700854618B012
:1004000020B5FFF71BFFBDE820404FF000064FF07E
:1004100000074FF000084FF0000B21F00701AC4639
:10042000ACE8C009ACE8C009ACE8C009ACE8C00958
:100430008D46704710B50446AFF300802046BDE8F6
:100440001040FFF7E6BE000000487047E4070020B8
:10045000F0B5FF22FF230E460024054609E010F800
:10046000017B87EA0304084F3F5D87EA0203074FD9
:100470003A5D371EA6F1010C1FFA8CF6EFD16A54D3
:100480004F1CEB55F0BD0000283800082839000843
:1004900010B500F059FEC4B264B900BF0648807DB3
:1004A00020F00300C01C0449887510200876FF2046
:1004B0000249087010BD0000DC060020500000203A
:1004C00000200149087070475C0000201CB5069CA4
:1004D00021480078002837D101201F4908700621E3
:1004E0001E4803F000F950210A2000F0E5F84FF40F
:1004F000C87001F0F7FF00200190009000BFBDF828
:100500000000411C89B20091C82802DB0220207043
:100510001BE0C82001F0E6FF00F0DEFB0190BDF813
:10052000040000F003000028E9D14FF47A7001F0D4
:10053000D9FF00F007FC0120094908700020094993
:100540000870FF200849087000BF022002490870A7
:10055000084600781CBD00005C00002000440040FC
:100560006500002066000020680000200548807DAE
:1005700020F003000349887500200876FF20024917
:1005800008707047DC060020500000200448807D81
:1005900020F0030002498875FF2002490870704767
:1005A000DC06002050000020002001490870704740
:1005B0005D0000200FB410B5089C1348007808BBFC
:1005C000012011490870BDF80A00012803D101F08B
:1005D00003FC20700EE0BDF80A00022803D101F0F0
:1005E00081FB207006E0BDF80A00032802D101F06B
:1005F00011FC20700220044908700846007810BCE5
:100600005DF814FB00BFFAE75D00002010B512484A
:10061000807D00F0030001281CD1104800780828D4
:1006200016D2DFE800F0040715150D100A1300F0CC
:10063000A3F80EE0FFF7AAFF0BE0FFF797FF08E033
:1006400000F032F905E0FFF723FF02E000F012F9B5
:1006500000BF00BF10BD0000DC06002050000020DD
:1006600010B500F0EDFB12498988642201FB02F00D
:1006700001F05AFD0A2001F07BFA4FF4E13001F05D
:10068000F5F80A2001F03EFA00F080FB322000F07D
:10069000A1FB00F05FFD0121084601F09FFA05482B
:1006A000807D20F0100010300249887510BD0000D8
:1006B00018000020DC06002070B505460C4605EB4E
:1006C0008500400094FBF0F086B2304601F00FFD4B
:1006D000642104FB01F001F01FFD01F073FB002019
:1006E00070BD2DE9F04107460D4616461C4605EB48
:1006F0008500400094FBF0F01FFA80F8404601F0BE
:10070000F6FC06EB8600400094FBF0F01FFA80F840
:10071000404601F0F3FC642104FB01F001F0FCFC15
:10072000384601F0DDFC0020BDE8F0812DE9F04104
:1007300007460D4616461C4605EB8500400094FB17
:10074000F0F01FFA80F8404601F0D1FC06EB86007D
:10075000400094FBF0F01FFA80F8404601F0CEFC18
:10076000642104FB01F001F0D7FC384601F0CDFC18
:100770000020BDE8F081000030B58BB000200A9069
:1007800035480078092844D2DFE800F04305192DE8
:100790004343434142000AA802902F480169009157
:1007A000808AADF8040016222B4904A8FFF759FDF2
:1007B00004A80FC8FFF7FEFE0446284D2EE00AA845
:1007C0000290254801690091808AADF80400162244
:1007D000214904A8FFF745FD04A80FC8FFF776FEDE
:1007E00004461F4D1AE00AA802901B4801690091B7
:1007F000808AADF804001622174904A8FFF731FDDE
:1008000004A80FC800F086F80446164D06E005E07F
:1008100004E0022406200A90134D00BF00BF022C02
:1008200018D1A8479DF8280038B91048807D20F0DD
:100830000300801C0D49887509E00C48807D20F07C
:100840000300C01C094988759DF828000876FF2020
:10085000074908700BB030BDCE070020A90500087D
:10086000C1040008D5080008D91B0008DC060020D8
:1008700050000020012080F3138800BF00BFBFF3A9
:100880004F8F0748006800F4E06006490843001DE8
:1008900003490860BFF34F8F00BF00BFFEE70000B1
:1008A0000CED00E00000FA0510B500F050FCC4B2F9
:1008B00054B900BF0548807D20F00300801C034927
:1008C0008875FF200249087010BD0000DC0600207A
:1008D000500000200020014908707047640000208B
:1008E00010B50948007801280CD1642001F016FEEB
:1008F000012001F025FA28B90448007810B1012040
:100900000349087010BD0000640000206A00002048
:10091000670000200FB42DE9F8430E9CBB48007817
:1009200000287DD10120B94908700621B84802F09D
:10093000DAFE00F0F9F9B748007860BB50210A20D0
:10094000FFF7BAFE4FF4C87001F0CCFD4FF000087D
:10095000C14600BF4846411C1FFA81F940F6B83134
:10096000884202DB0220207044E1C82001F0BAFD79
:1009700000F0B2F9804608F003000028EAD140F602
:10098000B83002F059FA00F0DDF90120A1490870F1
:100990000020A1490870BDF82200C5B200BF41F295
:1009A0008836BDF822009C490978401A002801DCED
:1009B00099480078BDF8220097490978401A97496C
:1009C00008609448007818B10846006800B911E141
:1009D0009048007820B9BDF822009049086008E0EE
:1009E0008E490868002801DB014600E041428B4A3D
:1009F0001160BDF8220088490870BDF82200401E31
:100A000040F24131484300F51670009001208449BE
:100A1000087084488149096850F82130012200E0BB
:100A2000E7E011460098FFF75CFE4FF4C87001F054
:100A300059FD4FF00008C14600BF4846411C1FFA4F
:100A400081F947F23051884202DB02202070D1E068
:100A5000642001F047FD00F03FF9804608F00300F4
:100A60000028EAD16E49087040F6B83002F0E4F987
:100A7000012001F065F948BB40F2145002F0DCF9A6
:100A8000694951F82500282314221146FFF74EFE2C
:100A90004FF4C87001F026FD4FF00008C14600BFBA
:100AA0004846411C1FFA81F947F23051884202DB67
:100AB000022020709EE0642001F014FD00F00CF98B
:100AC000804608F003000028EAD193E0002057494F
:100AD00008700120564908700F2305221146B420E2
:100AE000FFF724FE53480068470837E04F48007876
:100AF00058B301F083FB40F2145002F09DF94A49CB
:100B000051F8250028230A221146FFF70FFE4FF463
:100B1000C87001F0E7FC4FF00008C14600BF48462E
:100B2000411C1FFA81F947F23051884202DB022052
:100B300020705FE0642001F0D5FC00F0CDF8804625
:100B400008F003000028EAD154E03A480068C7EBF7
:100B50005000B04202D901F051FB00E0C6E700BFEF
:100B60000F23052211463448FFF7E0FD31480068A5
:100B700047083DE02D48007858B301F03FFB40F2B4
:100B8000145002F059F9284951F82500282314225D
:100B90001146FFF7CBFD4FF4C87001F0A3FC4FF0F6
:100BA0000008C14600BF4846411C1FFA81F947F2C0
:100BB0003051884202DB022020701BE0642001F0EB
:100BC00091FC00F089F8804608F003000028EAD183
:100BD00010E018480068C7EB5000B0EB460F07D98B
:100BE00001F00CFB0420207000200A49087001E08D
:100BF000C0E700BF02200549087000F095F80348DF
:100C00000078BDE8F8035DF814FB000064000020E4
:100C10000044004065000020660000206C000020B9
:100C200069000020303A00087000002067000020B2
:100C30006A000020240C004098FEFFFF10B572B639
:100C4000074800684068074908600549096808685E
:100C500080F3088800BF03480068804710BD00008B
:100C6000580000205400002000BFFEE730B50246C7
:100C70000B464FF6FF70002112E0555C68400824D7
:100C80000AE000F0010525B140104AF20105684074
:100C900000E04010651EECB2002CF2D14D1CA9B250
:100CA0009942EADB30BD38B505460C46002000907D
:100CB0006846A11E695C4170611E695C0170A01EDE
:100CC00081B2284600F0BCFABDF80010884201D17C
:100CD000012038BD0020FCE710B50120074908803D
:100CE000074A0121062001F0C5F800BF034800882B
:100CF0000028FBD10348008810BD000060000020E0
:100D0000090D00086200002010B50023044C238068
:100D10000B79CC7843EA0423024C238010BD0000F9
:100D20006000002062000020002003490870034991
:100D300008700349087070476700002069000020B0
:100D40006A00002010B50021D22001F063F910BD27
:100D500010B5202207210A4801F00FFD70B12022B2
:100D60000721074801F0EAFC20220721044801F08E
:100D7000A7FC00200349087000F0F4FE10BD00003D
:100D8000006402400C00002000BFFEE71FB541F2E6
:100D9000030002F06BF94AF20F40ADF800000020AA
:100DA000ADF80200ADF80400401E02900020ADF83E
:100DB00006008DF80C006946054802F039FB012158
:100DC000034802F081FB024802F02DFB1FBD00002A
:100DD000000C00401FB5044641F2111002F046F924
:100DE0004AF20F40ADF800000020ADF80200ADF867
:100DF00004000121C1EB840002900020ADF8060040
:100E00008DF80C0069460A4802F012FB01210848DF
:100E100002F05EFB0121064802F056FB032201218D
:100E2000192002F025F8024802F0FDFA1FBD00006B
:100E3000004401400022014B1A7070475E00002000
:100E400008B542F2107000F09DFC002000900223D3
:100E50006A460021084600F01DF8BDF800004AF27D
:100E6000A551884210D11423084A0021084600F0F9
:100E700011F82423064A0021012000F00BF801207C
:100E80000249C8700320887008BD000018000020C7
:100E9000980600202DE9F84304460F4615461E46E5
:100EA000A02000EB440000F0FF0801200F4908706B
:100EB0000F482B46324639460090404600F08CFCE5
:100EC0000C4800684FEA50090AE00A480068C9EB7C
:100ED000500040F6B831884202D90220BDE8F883BC
:100EE000024800780028F0D100BFF7E75E0000203C
:100EF000350E0008240C00402DE9FC5F81460F46AA
:100F000090461C462046E11704EB1171C1F3071609
:100F1000E11704EB11710911A4EB011101F0FF0AB3
:100F2000A02000EB4900C0B20190002526E001207E
:100F300028490870284808EB0513009007EB0510B6
:100F4000C1B21022019800F069FC244800684FEA01
:100F5000500B0AE021480068CBEB500040F6B83156
:100F6000884202D90220BDE8FC9F1A480078002878
:100F7000F0D1052001F0B6FA681CC5B2B542D6DB47
:100F8000BAF1000F23D0012012490870124808EB73
:100F90000613009007EB0610C1B25246019800F00C
:100FA0003DFC0E480068450809E00C480068C5EBA8
:100FB000500040F6B831884201D90220D3E70548F5
:100FC00000780028F1D1052001F08CFA00BF002044
:100FD000C9E700005E000020350E0008240C004028
:100FE00010B5012001F0E4FD10B1012001F0DAFD9F
:100FF00010BD10B5022001F0DBFD10B1022001F0A0
:10100000D1FD10BD10B5042001F0D2FD20B1FFF7D5
:1010100067FC042001F0C6FD10BD10B5082001F0EA
:10102000C7FD10B1082001F0BDFD10BD10B51020A6
:1010300001F0BEFD10B1102001F0B4FD10BD10B5DF
:10104000202001F0B5FD10B1202001F0ABFD4020C3
:1010500001F0AEFD10B1402001F0A4FD802001F0B0
:10106000A7FD10B1802001F09DFD4FF4807001F0CC
:101070009FFD18B14FF4807001F094FD4FF40070A3
:1010800001F096FD18B14FF4007001F08BFD10BD1A
:1010900010B5044600200AE034F810104AF2A552B8
:1010A000914202D12549087003E0411CC8B20828CA
:1010B000F2DB00BF10212046FFF718F91622204965
:1010C0002048FFF7CEF81D480078A8B91C48807D5D
:1010D00000F00300032801D1042010BD1848807DD2
:1010E00000F00300012805D01548807D00F00300C2
:1010F000022801D10720F0E710480078012807D125
:101100000F48807D00F00300022801D00720E4E7AB
:101110000A480078062807D10948807D00F00300BE
:10112000032801D00720D8E70548807D20F0030080
:10113000401C034988750020CFE7000050000020C4
:10114000DC060020CE0700204FF0FF3070474FF044
:10115000FF30704710B540F6024001F087FF0423CE
:1011600000221146344801F066FD40F6024001F0CD
:101170007DFF0823002211462F4801F05CFD40F658
:10118000024001F073FF1023002211462A4801F0AB
:1011900052FD40F6024001F069FF20230022114673
:1011A000254801F048FD40F6024001F05FFF802332
:1011B00000221146204801F03EFD40F6024001F0B9
:1011C00055FF4FF48073002211461B4801F033FD98
:1011D00040F6024001F04AFF4FF40073002211462E
:1011E000154801F028FD40F6034001F03FFF402381
:1011F00000221146114801F01EFD40F6034001F0A7
:1012000035FF0123002211460C4801F014FD40F681
:10121000034001F02BFF022300221146074801F092
:101220000AFD40F6024001F021FF3C23022200218A
:10123000014801F000FD10BD00080240000C024012
:1012400033B50246FF21FF23002409E012F8010B09
:1012500080EA03040948005D80EA01030848015D53
:10126000BDF80450681E80B20190002DEED101A897
:1012700041700370BDF804003CBD00002838000830
:10128000283900082DE9FC4101A8294989784170D5
:101290002749C97801706846254909794170244970
:1012A00049790170BDF800004006000E20498870A1
:1012B000BDF80400642190FBF1F0C4B2BDF8040055
:1012C00090FBF1F201FB1200C5B2BDF8000028440A
:1012D000C1B2204601F0CEF828B90221032000F067
:1012E000B1FDBDE8FC81032C05D1BDF80000C1B201
:1012F000284601F0BBF80F4850F8240000EB4506E3
:101300000B4FFF1CBDF80000420031463846FEF787
:10131000A8FFF81E8078C11CF81EFFF799F8F81E88
:101320008078411DF81E01F03FF800BFD9E70000AA
:10133000D00100202C0000202DE9FC4101A820490B
:10134000897841701E49C978017068461C4909793D
:1013500041701B4949790170BDF80400642190FB7C
:10136000F1F0C4B2BDF8040090FBF1F201FB1200F1
:10137000C5B22946204601F07DF828B90221062091
:1013800000F060FDBDE8FC810E4850F8240000EB41
:101390004506052C0BD10B494869FFF779FE074636
:1013A00027B13946062000F04DFDEBE700BFBDF840
:1013B000000030800821024800F0F6FF00BFE1E79E
:1013C000D00100202C0000202DE9FC4701A828496D
:1013D000897841702649C97801706846244909799D
:1013E0004170234949790170214890F80690BDF871
:1013F0000400642190FBF1F0C4B2BDF8040090FB3E
:10140000F1F201FB1200C5B2BDF800002844C1B2E0
:10141000204601F02FF828B90221102000F012FD1B
:10142000BDE8FC87134850F8240000EB4506104F38
:10143000FF1D4A4639463046FEF713FF052C0DD1F5
:101440000C494869FFF724FE8046B8F1000F04D02C
:101450004146102000F0F6FCE2E700BF06210448F8
:10146000FEF7F6FF0821024800F09EFF00BFD7E715
:10147000D00100202C00002010B50421044800F009
:1014800093FFC82001F02EF801200249087010BD1A
:10149000D00100200200002000BFFEE710B540F29E
:1014A0000A511C4801F06BFC20B140F20A51194866
:1014B00001F051FC4FF4A161164801F060FC20B12D
:1014C0004FF4A161134801F046FC40F20B51114862
:1014D00001F055FC20B140F20B510E4801F03BFCED
:1014E00040F209510B4801F04AFC20B140F2095189
:1014F000084801F030FC0820074988710846006957
:1015000020B10846C16802690020904700200249C6
:10151000887110BD00580040BC01002070B57548AE
:101520000468001D056804F0010040B3724880792A
:10153000012803D07048807904280BD16E480179C6
:101540006FF001026B48143801F042FC02206A4936
:101550008871B8E0684880790328FAD14FF4806137
:101560006448143801F0AFFB6348017901226148F7
:10157000143801F02DFC05205F498871A3E004F0C8
:101580000200E0B340F201515A48143801F0E3FB85
:1015900059488079022806D15748417A554814386D
:1015A00001F0A5FB1DE054488079062819D1524866
:1015B00042884088401C504B58801846C068815C67
:1015C0004C48143801F093FB4B4840884A4909883D
:1015D000884206D14748143801F017FC07204649D5
:1015E00088714548008801286DD1434880790528D5
:1015F00069D100213F48143801F065FB63E0FFE743
:1016000004F00400B0B304F0800098B33A48407985
:1016100058B939488079022807D13648143801F082
:10162000EFFB0320344988714DE0334840790128AD
:1016300049D1314840883049098888420CDA2E481F
:1016400042884088401C2C4B58801846C068815CFA
:101650002848143801F04BFB274840882649098860
:10166000884230D12348143801F0CFFB07202249AB
:10167000887128E0FFE704F0400020B31D481438CB
:1016800001F031FB1C494A884988491C1A4B598092
:101690001946C9688854184641880088401E81420E
:1016A00004D100211348143801F00DFB1248408882
:1016B00011490988884206D10E48143801F0A5FB6B
:1016C00007200D4988710C488079072810D140F215
:1016D0000B110848143801F061FB0748006920B17C
:1016E0000548C168026901209047002002498871BD
:1016F00070BD000014580040BC01002010B501F07E
:1017000063FA10BD70B504460D460E4801F0F2FABA
:101710002346002211460B4801F064FB4FF4806120
:10172000084801F0D0FA0021064801F0D4FA054833
:1017300001F00CFB0348006840F08000014908609C
:1017400070BD00000058004010B540F6014001F0A7
:101750008DFC41F2160001F089FCC02204210848EA
:1017600001F03AFAC02301220221054801F063FA90
:10177000C02302220121024801F084FA10BD0000BA
:101780000004024010B50446FFF7DEFF2146332077
:10179000FFF7B8FF00F002F810BD000010B50022FE
:1017A0001146212001F064FB00221146222001F0A5
:1017B0005FFB4FF48471074801F0FDFA4FF4857127
:1017C000044801F0F8FA40F20911024801F0F3FA76
:1017D00010BD0000005800402DE9F04104460D46C0
:1017E00016461F46DDF8188001200A498871084610
:1017F0000471002048800846C760068045720020BA
:1018000048710846C0F81080034801F0F9FABDE8B5
:10181000F0810000BC010020005800402DE9F0419B
:1018200004460D4616461F46DDF8188001200A4979
:10183000887108460471002048800846C760068009
:101840004572012048710846C0F81080034801F035
:10185000D7FABDE8F0810000BC010020005800402C
:1018600002200149087070471200002010B504469C
:101870004FF4406001F0FAFB41F2110001F0F6FB79
:10188000042301220221284801F0D5F90423022271
:101890000021254801F0F6F904220721224801F031
:1018A0009BF90823012202211F4801F0C4F90823F3
:1018B000022200211C4801F0E5F9082207211A48FC
:1018C00001F08AF9194801F091FE2146174801F00C
:1018D0000FFE0021154801F099FF0021134801F087
:1018E00085FF0021114801F071FF00210F4801F030
:1018F0002DFF00210D4801F01FFF04210B4801F0CE
:101900006DFF0821094801F079FF084801F0E6FE63
:1019100040F20531054801F023FF0322114626203D
:1019200001F0A6FA10BD0000000002400044004093
:1019300000BFFEE710B504461648007888B916487F
:1019400004700120154908800021154801F0A2FC0F
:1019500000BF134801F067FD00BF01200D4908706A
:1019600016E00C480078012812D10C490888411C67
:101970000A4A118008490C5410460088B0F5806F5F
:1019800002DB0020114608800021054801F082FC9E
:1019900010BD00000E000020D0010020100000202B
:1019A0000010004010B500241B480078022831D1F7
:1019B00003201949087019480078052802D0002032
:1019C000087010BD164801881448FFF76CF918B963
:1019D000002011490870F4E700BF10484078032840
:1019E00006D0062807D0102808D064280CD108E0BB
:1019F000FFF748FC08E0FFF79FFC05E0FFF7E4FC79
:101A000002E0FFF739FD00BF00BF00BF042002491C
:101A1000087000BF00BFD4E70E000020D0010020F6
:101A20001000002002200149087070470E000020BD
:101A300010B5044616480078052811D115480470E1
:101A400001201549088000BF144801F0ECFC00BFDC
:101A50000021124801F01EFC01200D49087016E01B
:101A60000B480078012812D10B490888411C0A4A0A
:101A7000118008490C5410460088B0F5806F06DBD1
:101A80000020114608800021044801F003FC10BD2D
:101A900012000020D0050020140000200014004097
:101AA0002DE9F04105460E46174600240CE0295D5D
:101AB000134801F096FD00BF0621114801F02DFEEC
:101AC0000128F9D1601CC4B2BC42F0DB31460C489D
:101AD00001F087FD00BF0621094801F01EFE012824
:101AE000F9D136123146064801F07BFD00BF0621D0
:101AF000034801F012FE0128F9D1BDE8F081000091
:101B0000004400401FB5044641F2050001F0AEFA62
:101B10004AF20F40ADF800000020ADF80200ADF829
:101B200004000120C0EB440002900020ADF8060044
:101B30008DF80C0069460A4801F07AFC012108483A
:101B400001F0C6FC0121064801F0BEFC012211464D
:101B5000372001F08DF9024801F060FC1FBD000044
:101B60000014004000200149087070470E0000205A
:101B70001FB5044641F2040001F078FA144801F060
:101B80008BFB4AF20F40ADF800000020ADF80200D8
:101B9000ADF804000120C0EB440002900020ADF835
:101BA00006008DF80C006946094801F041FC01214E
:101BB000074801F08DFC0121054801F085FC022257
:101BC0000121362001F054F9014801F027FC1FBD26
:101BD0000010004000BFFEE700BF704770B504462C
:101BE0000D4641F20E1001F041FA002605B900E061
:101BF0000126082C71D2DFE804F070041322314072
:101C00004F5F0221084601F067FA324600210420A6
:101C100000F06AFF02220021082001F029F95DE0AE
:101C20000321022001F058FA32460021082000F07A
:101C30005BFF03220221092001F01AF94EE0042182
:101C4000022001F049FA32460021102000F04CFF3A
:101C5000022200210A2001F00BF93FE005210220B9
:101C600001F03AFA32460021202000F03DFF022226
:101C70000021172001F0FCF830E00721022001F0DC
:101C80002BFA32460021802000F02EFF0222002194
:101C9000172001F0EDF821E00821022001F01CFAE4
:101CA000324600214FF4807000F01EFF0222002116
:101CB000172001F0DDF811E00921022001F00CFAF3
:101CC000324600214FF4007000F00EFF0222002186
:101CD000172001F0CDF801E0FFE700BF00BF70BDA5
:101CE00000BFFEE738B50020009002236A460021BD
:101CF0001846FFF7CFF8BDF800004AF2A551884218
:101D000001D0112038BD14230B4A00210220FFF717
:101D1000C1F804460CB12046F4E72423074A002109
:101D20000320FFF7B7F8044601200349C8700320D9
:101D300088702046E6E70000180000209806002082
:101D4000014600200B2936D2DFE801F035060A0FE4
:101D500014191E23282C3000184A1268D0B22BE028
:101D6000164A121D1268D0B226E0144A08321268D0
:101D7000D0B221E0114A0C321268D0B21CE00F4AF6
:101D800014321268D0B217E00C4A18321268D0B27E
:101D900012E00A4A1C321268D0B20DE0084A1268FA
:101DA000D0B209E0064A1268D0B205E0044A121D1A
:101DB0001268D0B200E000BF00BF70470802414285
:101DC0000082414210B540F20111C82000F0C8F86D
:101DD00010BD00BFFEE700001CB5142001902420B8
:101DE00000909DF80430094A00210846FFF784F866
:101DF00004460CB120461CBD9DF80030044A002169
:101E00000120FFF779F804462046F4E71800002087
:101E10009806002010B51423084A00210220FFF77D
:101E20006BF804460CB1204610BD2423044A00215F
:101E30000320FFF761F804462046F5E7180000206C
:101E4000980600207CB505460C46094903C9CDE932
:101E5000000145F080008DF801008DF8024003215B
:101E60006846FEF7F5FA0521684600F09DFA7CBD4C
:101E7000283A00082DE9FC4105460E461446334831
:101E80000078002860D1042030490870304800787C
:101E90008DF8000003208DF80100280A8DF802005B
:101EA000E8B28DF80300300A8DF80400F0B28DF826
:101EB000050006216846FEF7D9FE80460622414607
:101EC0006846FFF7EDFD05202049087021480068AD
:101ED000470814E01F480068C7EB500040F6B831CF
:101EE00088420CD934B103201849087000221146E9
:101EF0000B20A047002015490870BDE8FC8113485D
:101F000000780228E6D11448407800F0800058B1EB
:101F100034B103200D490870002211460420A04767
:101F200000200A490870E8E754B103200749087007
:101F30000A48028808490B20A0470020034908707E
:101F400000200249087000BF00BFD6E71200002041
:101F500000000020240C0040D005002014000020C8
:101F60002DE9FC4104460D4626480078002846D15C
:101F7000042024490870244800788DF800000620C9
:101F80008DF80100200A8DF80200E0B28DF8030000
:101F9000280A8DF80400E8B28DF80500062168468D
:101FA000FEF764FE0746062239466846FFF778FDCD
:101FB0000520144908701548006846080DE01348CC
:101FC0000068C6EB500040F6B831884205D90020C1
:101FD0000C4908700B20BDE8FC810A4800780228F3
:101FE000EDD10B48407800F0800020B10020054979
:101FF00008700420EFE7002002490870EBE7072093
:10200000E9E700001200002000000020240C00403E
:10201000D0050020FEB505460C462D480078002866
:1020200054D104202A4908702A4800788DF800000D
:1020300010208DF80100280A8DF80200E8B28DF812
:10204000030000208DF8040002208DF80500042014
:102050008DF80600200A8DF80700E0B28DF8080020
:10206000200E8DF80900200C8DF80A000B2168461F
:10207000FEF7FCFD07460B2239466846FFF710FDC8
:102080000520134908701448006846080CE01248FF
:102090000068C6EB500040F6B831884204D90020F1
:1020A0000B4908700B20FEBD094800780228EED1CC
:1020B0000A48407800F0800020B1002004490870F0
:1020C0000420F0E7002002490870ECE70720EAE767
:1020D0001200002000000020240C0040D005002049
:1020E00010B504462146D020FFF794FF10BD10B56F
:1020F000044621469820FFF733FF10BD10B5044673
:1021000021469920FFF72CFF10BD10B5044621464B
:10211000CE20FFF77FFF10BD10B504462146D82022
:10212000FFF778FF10BD000010B504464FF4406083
:1021300000F09CFF41F2041000F098FF4FF4007390
:10214000012202212B4800F076FD4FF40073032298
:102150000021284800F096FD4FF400720721254821
:1021600000F03AFD4FF4806301220221214800F083
:1021700062FD4FF48063032200211E4800F082FDBF
:102180004FF4806207211B4800F026FD1A4801F039
:102190002DFA2146184801F0ABF90021164801F04C
:1021A00035FB0021144801F021FB0021124801F009
:1021B0000DFB0021104801F0C9FA00210E4801F082
:1021C000BBFA04210C4801F009FB08210A4801F080
:1021D00015FB094801F082FA40F20531064801F08A
:1021E000BFFA00221146252000F042FE00F000F95F
:1021F00010BD0000000002400010014010B5002199
:10220000C820FFF7ADFE10BD7047000008B530488C
:10221000006840F470002E4908602E48006840F0C5
:1022200001002C49086000BF2A48006800F0020045
:102230000028F9D000BF27480830006840F080002F
:102240002449083108600020009002E00098401CFA
:10225000009000985028F9D31E480830006840F0DC
:1022600090001C49083108600020009002E00098AE
:10227000401C009000985028F9D300BF1548083042
:10228000006820F003001349083108601148006815
:10229000114908400F4908600846006820F4802072
:1022A000086000200B490831086000BF0948083069
:1022B000006800200028F9D108480649091D086077
:1022C000002004490C31086000F0E0FF08BD000068
:1022D00088ED00E000380240FFFFF6FE10300024D9
:1022E00010B50121064801F0F6F8012807D1FFF7E3
:1022F00059FBFFF703FA0121014801F0E9F810BD8D
:102300000044014010B50121064801F0E4F840B155
:10231000FFF788FB034801F081F80121014801F033
:10232000D7F810BD0010004010B50121074801F09A
:10233000D2F8012808D1FFF793FA044801F06EF8AB
:102340000121024801F0C4F810BD00000014004053
:1023500010B50849084801F01DFA50B10549064872
:1023600001F00BFA044801F037F9C4B22046FFF738
:10237000E1FA10BD050305000010014010B5084941
:10238000084801F007FA50B10549064801F0F5F98F
:10239000044801F021F9C4B22046FFF749FB10BD03
:1023A000050305000044004070B504460D4600BF1B
:1023B0000C4800780128FBD02A4621460A48FDF740
:1023C00050FF0721094800F0F5F82A460721074881
:1023D00000F082FB0721054800F0FCF801200149CC
:1023E000087070BD0C000020BC000020006402409A
:1023F00000B589B040F6164000F038FE07211848B5
:1024000000F00BF917480090012001901648029047
:1024100000200390049001200590402006900020A9
:1024200007904FF4403008906A4607210C4800F0AE
:10243000A7FA042207210A4800F0DCF880210948A5
:10244000001F01F041F910220721054800F057F95B
:1024500000221146462000F00BFD09B000BD00002F
:102460000064024004100140BC000020704700BF1F
:10247000FEE7000002461C2A01D3002070470448F2
:10248000805C884201DC0020F8E70120F6E70000CC
:102490004800002000BF70474FF0E021096921F09B
:1024A00001014FF0E02211611146096921F0040198
:1024B0001161C21700EB5272C2F3C702074B1A70C8
:1024C0001946097801EB4102C2EBC1114FF6FF72C8
:1024D00002EAC101024A1180704700000400002096
:1024E0000600002070B504464FF4077094FBF0F02E
:1024F000C6B24FF4077094FBF0F100FB114085B2B7
:1025000005E04FF4077000F02FF8701EC6B2002EE1
:10251000F7D115B1284600F027F870BD0146114AE1
:1025200012784A434FF0E0235A6100229A611A461A
:10253000126942F001021A6100BF4FF0E0221069F7
:1025400000F001021AB100F48032002AF5D04FF0F9
:10255000E022126922F001024FF0E0231A6100220A
:102560009A617047040000200146114A12884A43CC
:102570004FF0E0235A6100229A611A46126942F034
:1025800001021A6100BF4FF0E022106900F0010261
:102590001AB100F48032002AF5D04FF0E02212691F
:1025A00022F001024FF0E0231A6100229A61704785
:1025B0000600002010B501EB4102D30000F110022B
:1025C000D25822F0010301EB4102D40000F11002C5
:1025D000135110BD10B501EB4102D30000F1100200
:1025E000D25842F0010301EB4102D40000F1100285
:1025F000135110BD30B5134601EB4104E50000F165
:102600001004625922F0606242EA436201EB410425
:10261000E50000F11004625130BD10B501EB41023C
:10262000D30000F11002D25822F0010301EB410265
:10263000D40000F110021351002301EB4102D40039
:1026400000F11002135101EB4102D40000F1140219
:10265000135101EB4102D40000F11802135101EBB8
:102660004102D40000F11C02135101EB4102D400DD
:1026700000F120021351212301EB4102D40000F1AB
:102680002402135104290CDA01EB41025300C1F377
:10269000400203EB82033D229A4083681A43826022
:1026A0000DE00A1FD1B201EB41025300C1F3400219
:1026B00003EB82033D229A40C3681A43C26010BDF7
:1026C00010B504290CDA01EB41035C00C1F34003AF
:1026D00004EB830302FA03F38468234383600DE071
:1026E0000B1FD9B201EB41035C00C1F3400304EBC3
:1026F000830302FA03F3C4682343C36010BD30B5FB
:10270000802A0DD001EB4103DC0000F110031B59BE
:10271000134301EB4104E50000F1100463510CE0A8
:1027200001EB4103DC0000F124031B59134301EBCF
:102730004104E50000F12404635130BD10B50429C3
:102740000CDA01EB41035C00C1F3400304EB8303AB
:1027500002FA03F38468234383600DE00B1FD9B2B0
:1027600001EB41035C00C1F3400304EB830302FA75
:1027700003F3C4682343C36010BDF0B503460025CE
:1027800000260C46042979DA082A34D004DC012A10
:1027900007D0042A70D119E0102A41D0202A6BD129
:1027A00053E001EB41004700C1F3400007EB800715
:1027B00002FA07F01F6800EA070601EB4100C700B4
:1027C00003F12400C05900F0800556E001EB410000
:1027D0004700C1F3400007EB800702FA07F01F68CB
:1027E00000EA070601EB4100C70003F11000C059E1
:1027F00000F0020541E001EB41004700C1F3400059
:1028000007EB800702FA07F01F6800EA070601EBF2
:102810004100C70003F11000C05900F004052CE08E
:1028200001EB41004700C1F3400007EB800702FACB
:1028300007F01F6800EA070601EB4100C70003F13B
:102840001000C05900F0080517E001EB41004700F7
:10285000C1F3400007EB800702FA07F01F6800EAA7
:10286000070601EB4100C70003F11000C05900F05A
:10287000100502E002E0FFE700BF7AE0201FC4B2CB
:10288000082A34D004DC012A07D0042A6FD119E0C9
:10289000102A41D0202A6AD153E004EB44004700BB
:1028A000C4F3400007EB800702FA07F05F6800EA14
:1028B000070601EB4100C70003F12400C05900F0F6
:1028C000800555E004EB44004700C4F3400007EBEB
:1028D000800702FA07F05F6800EA070601EB410093
:1028E000C70003F11000C05900F0020540E004EBFE
:1028F00044004700C4F3400007EB800702FA07F0EA
:102900005F6800EA070601EB4100C70003F1100011
:10291000C05900F004052BE004EB44004700C4F369
:10292000400007EB800702FA07F05F6800EA07063D
:1029300001EB4100C70003F11000C05900F0080589
:1029400016E004EB44004700C4F3400007EB8007A7
:1029500002FA07F05F6800EA070601EB4100C700D2
:1029600003F11000C05900F0100501E0FFE700BFBF
:1029700000BF16B10DB10120F0BD0020FCE7000042
:1029800070B501EB4104E50000F12404645924F022
:10299000040501EB4104E60000F12404A55101EB1C
:1029A0004104E60000F118041568A55101EB41044B
:1029B000E60000F11C049568A55101EB4104E60016
:1029C00000F11404D569A55101EB4104E50000F1C3
:1029D000100463593F4C2340146944EA8404156A87
:1029E0002C4395692C43234301EB4104E50000F19E
:1029F00010046351546874B901EB4104E50000F11F
:102A00001004645944F4007501EB4104E60000F140
:102A10001004A5511FE05468012C0ED101EB4104B4
:102A2000E50000F11004645924F4007501EB410441
:102A3000E60000F11004A5510DE001EB4104E500B2
:102A400000F11004645944F4004501EB4104E60030
:102A500000F11004A551D46874B901EB4104E500FC
:102A600000F11004645944F4806501EB4104E60070
:102A700000F11004A5510DE001EB4104E50000F167
:102A80001004645924F4806501EB4104E60000F170
:102A90001004A551546974B901EB4104E50000F13B
:102AA0001004645944F4807501EB4104E60000F120
:102AB0001004A5510DE001EB4104E50000F1100404
:102AC000645924F4807501EB4104E60000F1100420
:102AD000A55170BD3F87FCFF10B501EB4103DC0041
:102AE00000F114031A5110BD10B52D4B1B68834320
:102AF0002B4C2360231D1B688343241D2360231D4F
:102B00001B688343241D2360231D1B688343241DEE
:102B1000236011B101290ED105E0214B1B6803434D
:102B20001F4C236008E01E4B1B1D1B6803431C4CFD
:102B3000241D236000E000BF00BF32B1012A11D084
:102B4000022A1CD0032A27D127E0154B08331B6823
:102B50000343134C08342360231D1B688343241D47
:102B600023601BE00E4B08331B6883430C4C083476
:102B70002360231D1B680343241D23600EE0084BC4
:102B800008331B680343064C08342360231D1B686D
:102B90000343241D236001E000BF00BF00BF10BD40
:102BA000003C01400149086070470000143C0140AE
:102BB000014604480068084008B101207047002021
:102BC000FCE70000143C01404AF6AA2001490860D5
:102BD0007047000000300040F0B503461C6A5D6A93
:102BE00000200DE00126864016403EB187000F26EA
:102BF000BE40B443860001FA06F63443461CB0B228
:102C00000828EFD3082011E00126864016405EB167
:102C1000A0F10806B7000F26BE40B543A0F1080694
:102C2000B60001FA06F63543461CB0B21028EBD3C5
:102C30001C625D62F0BDF0B504460D461646216883
:102C4000E268002019E0012787401F409FB14FEA4A
:102C5000400C032707FA0CF7B943470005FA07F7BA
:102C600039434FEA400C032707FA0CF7BA434700F1
:102C700006FA07F73A43471CB8B21028E3D321609D
:102C8000E260F0BDF0B50C461546012C03D1466854
:102C90001E43466002E046689E434660826800210B
:102CA0000DE001268E401E403EB14F000326BE407F
:102CB000B2434E0005FA06F632434E1CB1B210295B
:102CC000EFD38260F0BD0A460021016821F48061E3
:102CD0001143016070470A460021016821F4006138
:102CE00011430160704701460869C0B27047CAB21B
:102CF0000261704710B504461348204430B1B0F566
:102D0000806F0CD0B0F5006F1BD111E040F61500BC
:102D100000F0D0F940F6150000F0BAF912E040F6E4
:102D2000160000F0C7F940F6160000F0B1F909E00E
:102D300040F6170000F0BEF940F6170000F0A8F9C1
:102D400000E000BF00BF10BD00ACFFBF016841F054
:102D500001010160704710B540F20152914202D169
:102D6000426982690AE000EB9112126801F01F04C7
:102D70000123A3409A4300EB91131A6010BD10B5D4
:102D8000024602EB9110006801F01F040123A340EA
:102D9000184008B1012010BD0020FCE710B500EB81
:102DA0009112126801F01F040123A3409A4300EB23
:102DB00091131A6010BD10B500EB9112126801F06A
:102DC0001F040123A3401A4300EB91131A6010BDA6
:102DD00012F1020F02D121F0010101E041F00101E5
:102DE0000161704730B50C460021016821F00201F5
:102DF00021430160C3F3090342EA0305856030BD46
:102E0000016841F4807101607047016841F400710C
:102E100001607047FFF7FAF9A820FFF73DFBFDF7C7
:102E20001FFC06E0FDF7F2FB0248007808B1FDF751
:102E300005FFF7E70200002070B504464FF47A70F2
:102E400094FBF0F085B24FF47A7094FBF0F100FB44
:102E5000114084B203E04FF47A70FFF743FB281E61
:102E6000A5F101018DB2F6D12046FFF73BFB70BD05
:102E70002DE9F04103460D46164600240027A046E2
:102E80002A48006800F4E060B0F5E06F03D100BFAD
:102E90004FF0040830E02548006800F4E060B0F529
:102EA000C06F03D101274FF0030825E01F480068D9
:102EB00000F4E060B0F5A06F02D10227B8461BE035
:102EC0001A48006800F4E060B0F5806F03D1032772
:102ED0004FF0010810E01548006800F4E060B0F51C
:102EE000407F03D104274FF0000805E04FF4A060B5
:102EF00000F020F80227B846C7F1040005FA00F4F4
:102F0000C8F104010F20C8403040044324010848A0
:102F1000C45403F01F01012088405911890001F1B8
:102F2000E021C1F80001BDE8F08100000CED00E0F7
:102F300000E400E002490143024A116070470000CA
:102F40000000FA050CED00E02DE9F04F8CB00646CC
:102F500000200A903EA090E8004CC068CDE905BE74
:102F6000CDF810A007900FF2EC0ADAE9000ACDE9DB
:102F7000020A0FF2E00ADAE9000ACDE9000A38484D
:102F80000068C0F381000B900B9820B1012804D099
:102F9000022828D103E0334927E0334925E03048AF
:102FA000001F006800F03F072D48001F0068C0F3B5
:102FB000881C2B48001F0068C0F30140401C4FEAEA
:102FC00040092748001F006800F48008B8F5800F0A
:102FD00001D1254B00E0234BB3FBF7F000FB0CF0D5
:102FE000B0FBF9F101E01F4900BF00BF1C480068B9
:102FF000C0F3031404A8055D21FA05F2184800681F
:10300000C0F3822402A8055D22FA05F00990144855
:103010000068C0F342341DF8045022FA05F008900D
:1030200036B1012E06D0022E06D0032E0AD106E0BC
:103030000A9108E00A9206E009980A9003E00898CD
:103040000A9000E000BF00BF0A980CB0BDE8F08F06
:103050000000000000000000010203040607080948
:10306000083802400024F40000127A00074A02EBFC
:103070009011D1F8001800F01F0301229A4011436B
:10308000024B03EB9012C2F8001870470030024068
:10309000074A02EB9011D1F8001800F01F0301223B
:1030A0009A409143024B03EB9012C2F8001870470C
:1030B00000300240074A02EB9011D1F8001800F0EE
:1030C0001F0301229A401143024B03EB9012C2F8F6
:1030D000001870470030024070B504460B46CD170B
:1030E00001EB9575AD10A1EB8505AE000F25B54040
:1030F000E843CD1701EB9575AD10A1EB8505AD004B
:1031000004FA05F2CD1701EB9575AD1035B1012D1F
:103110000ED0022D18D0032D2ED121E0184B1B68A4
:103120000340174D2B602B461B6813432B6024E094
:10313000134B1B1D1B680340114D2D1D2B602B468F
:103140001B6813432B6018E00D4B08331B680340CA
:103150000B4D08352B602B461B6813432B600CE08E
:10316000074B0C331B680340054D0C352B602B4679
:103170001B6813432B6000E000BF00BF70BD000060
:103180000838014000203E49096841F480313C4A3A
:10319000116000BF3A49096801F4003129B90146BC
:1031A000401C4FF6FF729142F4D13549096801F491
:1031B000003131B900BF3249096801F400310029FA
:1031C000F9D02F494031096841F080512C4A4032F2
:1031D00011602C49096841F440412A4A116028498C
:1031E00008310968264A083211601146096841F41D
:1031F000004111601146096841F4A0511160224953
:10320000121F1160111F096841F08071121F1160B7
:1032100000BF1B49096801F000710029F9D0194964
:10322000096841F48031174A116000BF15494968A7
:1032300001F480310029F9D01249096841F40031C4
:10324000104A116000BF0F49496801F4003100299C
:10325000F9D00B490831096821F00301084A083206
:1032600011601146096841F00201116000BF044974
:103270000831096801F008010029F8D07047000002
:1032800000380240007000400854400710B5FFF7B6
:1032900079FF10BD4162704710B504465C49601A61
:1032A0008C426FD019DC5B49A4EB01008C424ED0FC
:1032B00009DCB4F1804F2ED057482044A0B3B0F5BC
:1032C000806F72D13AE0B0F5806F49D0B0F5006FF1
:1032D0004FD0B0F5406FF4D17BE0B0F5923F5BD0BA
:1032E00009DCB0F5806F73D0B0F5644F0AD0B0F54B
:1032F000684F5AD147E0B0F5943F57D0B0F5963FAC
:1033000053D15CE04FF41060FFF7D4FE4FF410602F
:10331000FFF7BEFE79E04FF40060FFF7CBFE4FF4FD
:103320000060FFF7B5FE70E0FFE740F60100FFF731
:10333000C1FE40F60100FFF7ABFE66E040F602007A
:10334000FFF7B8FE40F60200FFF7A2FE5DE040F690
:103350000300FFF7AFFE40F60300FFF799FE54E0CD
:1033600040F60400FFF7A6FE40F60400FFF790FECB
:103370004BE040F60500FFF79DFE40F60500FFF725
:1033800087FE42E02EE040F60110FFF793FE40F684
:103390000110FFF77DFE38E04FF41160FFF78AFE61
:1033A0004FF41160FFF774FE2FE02DE040F611108E
:1033B000FFF780FE40F61110FFF76AFE25E040F6A9
:1033C0001210FFF777FE40F61210FFF761FE1CE0C7
:1033D00011E040F60600FFF76DFE40F60600FFF72D
:1033E00057FE12E040F60700FFF764FE40F60700C4
:1033F000FFF74EFE09E040F60800FFF75BFE40F6DF
:103400000800FFF745FE00E000BF00BF10BD000050
:10341000001C0040000C004000FCFFBF016821F0D0
:10342000010101607047016841F0010101607047CE
:103430000A8882621D4A90420ED0B0F1804F0BD0B4
:103440001B4A904208D01B4A904205D01A4A90422B
:1034500002D01A4A90420BD1026822F07002026038
:1034600002684B881A43026002688B881A43026024
:103470008A68C262124A90420AD0124A904207D029
:10348000026822F4407202600268CB881A4302602C
:10349000064A904202D0094A904201D10A7B026357
:1034A000426942F0010242617047000000000140A1
:1034B0000004004000080040000C004000040140EF
:1034C0000010004000140040C2680A43C260704708
:1034D000CA43026170470246D06800EA01031069DE
:1034E000084010B10BB1012070470020FCE700003C
:1034F0002DE9F04704460D460027B846B946002698
:103500003349601A8C4235D00CDC32482044E8B193
:10351000B0F5806F1FD0B0F5006F21D0B0F5406FCF
:1035200032D122E0B0F5806F29D0B0F5184F03D02A
:10353000B0F51C4F28D104E00320FFF705FD074636
:1035400023E00320FFF700FD07461EE00220FFF7FF
:10355000FBFC074619E00220FFF7F6FC074614E0E3
:103560000220FFF7F1FC07460FE00220FFF7ECFC1A
:1035700007460AE00220FFF7E7FC074605E00220C5
:10358000FFF7E2FC074600E000BF00BFE06800F480
:10359000004070B1780000EB5500B0FBF5F64FF637
:1035A000F07006EA0008C6F3420948EA0900A06084
:1035B0000CE007EB5500B0FBF5F64FF6F07006EAAD
:1035C000000806F00F0948EA0900A060BDE8F0878E
:1035D0000078004000BCFFBF01464868C0F3080007
:1035E0007047C1F3080242607047000010B50446FE
:1035F0003349601A8C424DD00CDC32482044E0B193
:10360000B0F5806F22D0B0F5006F31D0B0F5406FCB
:1036100052D136E0B0F5806F45D0B0F5184F03D0E9
:10362000B0F51C4F48D11AE040F60410FFF742FDF8
:1036300040F60410FFF72CFD3FE040F61100FFF7C5
:1036400039FD40F61100FFF723FD36E040F6120089
:10365000FFF730FD40F61200FFF71AFD2DE040F6AF
:103660000510FFF727FD40F60510FFF711FD24E0D8
:1036700040F61300FFF71EFD40F61300FFF708FDAC
:103680001BE040F61400FFF715FD40F61400FFF7AD
:10369000FFFC12E040F61E00FFF70CFD40F61E0096
:1036A000FFF7F6FC09E040F61F00FFF703FD40F6C8
:1036B0001F00FFF7EDFC00E000BF00BF10BD0000E1
:1036C0000078004000BCFFBF426922F080024261E6
:1036D000426901F080031A4342617047C16841F4B6
:1036E0000051C160704710B543F2080291420BD1FE
:1036F00000EB9112126801F01F040123A3409A43CA
:1037000000EB91131A6007E001F01F0301229A40B9
:10371000D24300EB91131A6010BD10B5024602EBC4
:103720009110006801F01F040123A340184008B164
:10373000012010BD0020FCE7426922F400724261C2
:10374000426901F400731A4342617047426922F4EE
:1037500080724261426901F480731A43426170478A
:1037600010B500EB9112126801F01F040123A34071
:103770001A4300EB91131A6010BD10B500EB915283
:103780001268C1F304440123A3409A4300EB915310
:103790001A6010BD70B5024600230024C1F38910E1
:1037A000105801F01F060125B54000EA050302EBA1
:1037B00091500068C1F304460125B54000EA0504B4
:1037C00014B10BB1012070BD0020FCE7C26822F4E7
:1037D000C062C260C2680A43C26070470A460021E4
:1037E000C16821F004011143C1607047026922F4ED
:1037F0004052026102690A43026170470A46002191
:10380000C16821F008011143C1607047C26822F409
:103810008052C260C2680A43C26070474FF0407075
:10382000E1EE100A7047000000C1814001C08041F4
:1038300001C0804100C1814001C0804100C1814080
:1038400000C1814001C0804101C0804100C1814070
:1038500000C1814001C0804100C1814001C0804160
:1038600001C0804100C1814001C0804100C1814050
:1038700000C1814001C0804100C1814001C0804140
:1038800001C0804100C1814000C1814001C0804130
:1038900001C0804100C1814001C0804100C1814020
:1038A00000C1814001C0804101C0804100C1814010
:1038B00000C1814001C0804100C1814001C0804100
:1038C00001C0804100C1814000C1814001C08041F0
:1038D00001C0804100C1814001C0804100C18140E0
:1038E00000C1814001C0804100C1814001C08041D0
:1038F00001C0804100C1814001C0804100C18140C0
:1039000000C1814001C0804101C0804100C18140AF
:1039100000C1814001C0804100C1814001C080419F
:1039200001C0804100C1814000C0C101C30302C287
:10393000C60607C705C5C404CC0C0DCD0FCFCE0EEF
:103940000ACACB0BC90908C8D81819D91BDBDA1A5F
:103950001EDEDF1FDD1D1CDC14D4D515D71716D6CF
:10396000D21213D311D1D010F03031F133F3F2323F
:1039700036F6F737F53534F43CFCFD3DFF3F3EFEAF
:10398000FA3A3BFB39F9F83828E8E929EB2B2AEA1F
:10399000EE2E2FEF2DEDEC2CE42425E527E7E6268F
:1039A00022E2E323E12120E0A06061A163A3A262FF
:1039B00066A6A767A56564A46CACAD6DAF6F6EAE6F
:1039C000AA6A6BAB69A9A86878B8B979BB7B7ABADF
:1039D000BE7E7FBF7DBDBC7CB47475B577B7B6764F
:1039E00072B2B373B17170B05090915193535292BF
:1039F00096565797559594549C5C5D9D5F9F9E5E2F
:103A00005A9A9B5B99595898884849894B8B8A4A9E
:103A10004E8E8F4F8D4D4C8C44848545874746860E
:103A20008242438341818040050000000000000085
:103A30000A0000001E000000280000003C000000FA
:103A40004B0000004B0000004B0000004B0000004A
:103A50004B0000004B0000004B0000004B0000003A
:103A60004B0000005000000050000000500000001B
:103A70005000000050000000500000009C3A000878
:103A800000000020BC000000BC010008583B0008FA
:103A9000BC0000208C0D0000D801000801090000C6
:103AA0000000000000000000000000000000000016
:103AB000000000000000030180040000000000007E
:103AC0000000000000000000180000209806002000
:103AD000BC060020C6060020DC060020F6060020FA
:103AE0000607002014240A161A10C800FF00000060
:103AF0000000000000000E080000000000000000B0
:103B000000000000000000000000000000000000B5
:103B100000000000000000000000000000000000A5
:103B20000000000000000000000000000000000095
:103B3000000000000000000000000000F6FFFFFF92
:103B40000000000000000000000000000000000075
:083B500000000000000000006D
:04000005080001816D
:00000001FF
