:020000040800F2
:10000000E00D0020590500084502000849020008DB
:100010004D020008510200085502000800000000CF
:10002000000000000000000000000000590200086D
:100030005D0200080000000061020008650200087F
:1000400073050008730500087305000873050008B0
:100050007305000873050008C3420008D542000874
:10006000E7420008F94200080B4300087305000846
:100070007305000873050008730500087305000880
:100080007305000873050008730500087305000870
:100090007305000873050008730500081D43000878
:1000A00073050008E93C00087305000873050008A3
:1000B0007305000873050008730500087305000840
:1000C0007305000873050008730500087305000830
:1000D00073050008913F0008D53D0008730500082E
:1000E0007305000873050008730500087305000810
:1000F0007305000873050008730500087305000800
:1001000073050008730500087305000873050008EF
:100110007305000873050008B13B00082B3C00087C
:1001200073050008730500087305000873050008CF
:1001300073050008730500087305000873050008BF
:1001400073050008730500087305000873050008AF
:100150007305000873050008B53F00087305000823
:10016000730500087305000873050008730500088F
:10017000730500087305000873050008730500087F
:1001800000F002F800F03CF80AA090E8000C82446D
:100190008344AAF10107DA4501D100F031F8AFF24A
:1001A000090EBAE80F0013F0010F18BFFB1A43F055
:1001B00001031847D8580000F8580000103A24BF2F
:1001C00078C878C1FAD8520724BF30C830C144BFBC
:1001D00004680C60704700000023002400250026FE
:1001E000103A28BF78C1FBD8520728BF30C148BF9A
:1001F0000B6070471FB505F031FB1FBD10B510BD7A
:1002000005F0F9FA1146FFF7F5FF00F009F805F0DF
:1002100017FB03B4FFF7F2FF03BC03F07DFD000002
:1002200000F0A3F8A82003F009FC04F07BFD06E031
:1002300004F0CFFE0248007808B104F047FEF7E76B
:100240000200002000BFFEE700BFFEE700BFFEE7A0
:1002500000BFFEE700BFFEE700BFFEE700BFFEE70E
:1002600000BFFEE7704700000020AE49096841F476
:100270008031AC4A116000BFAA49096801F400311D
:1002800029B90146401C4FF6FF729142F4D1A549AD
:10029000096801F4003131B900BFA249096801F4CD
:1002A00000310029F9D09F494031096841F080515F
:1002B0009C4A403211609C49096841F440419A4A85
:1002C0001160984908310968964A08321160114650
:1002D000096841F4004111601146096841F4A051D8
:1002E00011609249121F1160111F096841F080715D
:1002F000121F116000BF8B49096801F000710029CD
:10030000F9D08949096841F48031874A116000BFFA
:100310008549496801F480310029F9D0824909688A
:1003200041F40031804A116000BF7F49496801F4FF
:1003300000310029F9D07B490831096821F0030117
:10034000784A083211601146096841F002011160D3
:1003500000BF74490831096801F008010029F8D08C
:10036000704710B5FFF780FF10BD08B570480068F2
:1003700040F470006E4908606A48006840F001006F
:100380006849086000BF6748006800F00200002864
:10039000F9D000BF63480830006840F08000614930
:1003A000083108600020009002E00098401C009096
:1003B00000985028F9D35B480830006840F090005E
:1003C0005849083108600020009002E00098401C65
:1003D000009000985028F9D300BF524808300068B8
:1003E00020F003004F49083108604E480068514929
:1003F00008404C4908600846006820F480200860E6
:10040000002048490831086000BF464808300068AD
:1004100000200028F9D148484249091D0860002001
:1004200040490C310860FFF79CFF08BD2DE9FF47EC
:100430000FF2081ADAE900C8DAE9029ACDE900C831
:10044000CDE9029ADFF8DCC00CF1080CDCF800C042
:10045000CCF3810727B1012F09D0022F43D10DE042
:10046000DFF8E8C0DFF8E880C8F800C042E0DFF855
:10047000E4C0DFF8DC80C8F800C03BE0DFF8A4C0CF
:100480000CF1040CDCF800C00CF03F01DFF894C064
:100490000CF1040CDCF800C0CCF38812DFF884C047
:1004A0000CF1040CDCF800C0CCF3014C0CF1010C95
:1004B0004FEA4C04DFF86CC00CF1040CDCF800C00F
:1004C0000CF48003B3F5800F01D1224800E01F48EF
:1004D000B0FBF1FC0CFB02FCBCFBF4FCDFF8708011
:1004E000C8F800C006E0DFF864C0DFF86480C8F830
:1004F00000C000BF00BFDFF82CC00CF1080CDCF816
:1005000000C0CCF303151DF80560DFF844C0DCF82B
:1005100000C02CFA06FCDFF83880C8F800C0BDE83F
:10052000FF87000000380240007000400854400778
:1005300088ED00E0FFFFF6FE103000240000000010
:100540000000000001020304060708090024F4006B
:100550000400002000127A0009488047094800473B
:10056000FEE7FEE7FEE7FEE7FEE7FEE7FEE7FEE763
:10057000FEE7FEE704480549054A064B70470000C0
:100580006B03000881010008E0070020E00D002057
:10059000E0090020E00900204B4901434B4A11606B
:1005A00070472DE9F04103460D461646002400270A
:1005B000A0464648006800F4E060B0F5E06F03D163
:1005C00000BF4FF0040830E04048006800F4E060ED
:1005D000B0F5C06F03D101274FF0030825E03B4879
:1005E000006800F4E060B0F5A06F02D10227B846C1
:1005F0001BE03648006800F4E060B0F5806F03D17E
:1006000003274FF0010810E03048006800F4E06074
:10061000B0F5407F03D104274FF0000805E04FF408
:10062000A060FFF7B9FF0227B846C7F1040005FA3A
:1006300000F4C8F104010F20C840304004432401F5
:100640002348C45403F01F01012088405911890038
:1006500001F1E021C1F80001BDE8F08100F01F02C6
:10066000012191401B4A431142F8231070471A4A56
:100670000A400243154B1B1F1A60BFF34F8F704790
:100680001249091D09680143104A121D1160704783
:100690000E49091D096881430C4A121D11607047FB
:1006A000042808D14FF0E021096941F004014FF01E
:1006B000E022116107E04FF0E021096921F0040117
:1006C0004FF0E022116170470000FA050CED00E0E8
:1006D00000E400E080E100E080FFFF1F10B501EBC7
:1006E0004102D30000F11002D25822F0010301EBC5
:1006F0004102D40000F110021351002301EB41022A
:10070000D40000F11002135101EB4102D40000F1BA
:100710001402135101EB4102D40000F118021351ED
:1007200001EB4102D40000F11C02135101EB410224
:10073000D40000F120021351212301EB4102D40027
:1007400000F12402135104290CDA01EB4102530099
:10075000C1F3400203EB82033D229A4083681A43AF
:1007600082600DE00A1FD1B201EB41025300C1F3D8
:10077000400203EB82033D229A40C3681A43C260E1
:1007800010BD002101600121416000218160012133
:10079000C160002101610121416100218161C161CC
:1007A00001627047002101604160012181600021E8
:1007B000C16001610121416100218161C1610121AB
:1007C000416200218162C1620163704770B501EB33
:1007D0004104E50000F12404645924F0040501EB10
:1007E0004104E60000F12404A55101EB4104E600B8
:1007F00000F118041568A55101EB4104E60000F171
:100800001C049568A55101EB4104E60000F11404B5
:10081000D569A55101EB4104E50000F110046359CD
:10082000F94C2340146944EA8404156A2C43956901
:100830002C43234301EB4104E50000F11004635114
:10084000546874B901EB4104E50000F110046459E7
:1008500044F4007501EB4104E60000F11004A551D9
:100860001FE05468012C0ED101EB4104E50000F1BA
:100870001004645924F4007501EB4104E60000F112
:100880001004A5510DE001EB4104E50000F1100456
:10089000645944F4004501EB4104E60000F1100402
:1008A000A551D46874B901EB4104E50000F11004CE
:1008B000645944F4806501EB4104E60000F1100442
:1008C000A5510DE001EB4104E50000F1100464596D
:1008D00024F4806501EB4104E60000F11004A55109
:1008E000546974B901EB4104E50000F11004645946
:1008F00044F4807501EB4104E60000F11004A551B9
:100900000DE001EB4104E50000F11004645924F40A
:10091000807501EB4104E60000F11004A55170BDA3
:1009200070B501EB4104E50000F124046459156A37
:1009300045F004052C4301EB4105EE0000F12405D0
:10094000AC5101EB4104E60000F118041568A55113
:1009500001EB4104E60000F11C04D568A55101EB50
:100960004104E60000F11404D56AA55101EB4104ED
:10097000E50000F110046359A44C23401569546844
:100980002C43156B2C43956A2C4395692C43D569F0
:100990002C43234301EB4104E50000F110046351B3
:1009A000946874B901EB4104E50000F11004645946
:1009B00044F4007501EB4104E60000F11004A55178
:1009C0001FE09468012C0ED101EB4104E50000F119
:1009D0001004645924F4007501EB4104E60000F1B1
:1009E0001004A5510DE001EB4104E50000F11004F5
:1009F000645944F4004501EB4104E60000F11004A1
:100A0000A551546974B901EB4104E50000F11004EB
:100A1000645944F4806501EB4104E60000F11004E0
:100A2000A5510DE001EB4104E50000F1100464590B
:100A300024F4806501EB4104E60000F11004A551A7
:100A4000546A74B901EB4104E50000F110046459E3
:100A500044F4807501EB4104E60000F11004A55157
:100A60000DE001EB4104E50000F11004645924F4A9
:100A7000807501EB4104E60000F11004A55170BD42
:100A800010B501EB4103DC0000F118031A5110BD51
:100A900030B532B101EB4104E50000F120046351AF
:100AA00005E001EB4104E50000F11C04635130BD99
:100AB00010B501EB4103DC0000F114031A5110BD25
:100AC000024601EB4100C30002F11400C058704718
:100AD00030B5134601EB4104E50000F11004625902
:100AE00022F440321A4301EB4104E50000F1100406
:100AF000625130BD30B5134601EB4104E50000F111
:100B00001004625922F0C0721A4301EB4104E5005F
:100B100000F11004625130BD30B5134601EB4104C1
:100B2000E50000F11004625922F4C0021A4301EBFF
:100B30004104E50000F11004625130BD30B51346A8
:100B400001EB4104E50000F11004625922F4C042B7
:100B50001A4301EB4104E50000F11004625130BD7D
:100B600030B5134601EB4104E50000F11004625971
:100B700022F4C0521A4301EB4104E50000F11004D5
:100B8000625130BD30B572B901EB4103DC0000F1B8
:100B900010031B5943F4806401EB4103DD0000F1B5
:100BA00010035C510DE001EB4103DC0000F1100388
:100BB0001B5923F4806401EB4103DD0000F11003B5
:100BC0005C5130BD30B572B901EB4103DC0000F17E
:100BD00010031B5943F4007401EB4103DD0000F1E5
:100BE00010035C5130E0012A12D101EB4103DC001B
:100BF00000F110031B5923F4007401EB4103DD00E5
:100C000000F110035C511FE03F87FCFF3F871CFE93
:100C100001EB4103DC0000F110031B5943F40074A5
:100C200001EB4103DD0000F110035C5101EB4103D6
:100C3000DC0000F110031B5943F4004401EB4103B5
:100C4000DD0000F110035C5130BD10B501EB410235
:100C5000D30000F11002D25842F4807301EB41023C
:100C6000D40000F11002135110BD10B501EB410288
:100C7000D30000F11002D25822F4807301EB41023C
:100C8000D40000F11002135110BD10B501EB410268
:100C9000D30000F11002D25842F0010301EB4102EF
:100CA000D40000F11002135110BD10B501EB410248
:100CB000D30000F11002D25822F0010301EB4102EF
:100CC000D40000F11002135110BD30B5134601EBF2
:100CD0004104E50000F11004625922F0C0021A43F9
:100CE00001EB4104E50000F11004625130BD70B524
:100CF00001EB4104E50000F12004625173B901EBFE
:100D00004104E50000F11004645924F4002501EBCE
:100D10004104E60000F11004A5510DE001EB41048F
:100D2000E50000F11004645944F4002501EB41048E
:100D3000E60000F11004A55170BD024601EB410030
:100D4000C30002F11000C05800F4002008B10120D7
:100D500070470020FCE730B5134601EB4104E50085
:100D600000F11004625922F0606242EA436201EB32
:100D70004104E50000F11004625130BD30B572B994
:100D800001EB4103DC0000F110031B5923F02004A8
:100D900001EB4103DD0000F110035C510DE001EBBC
:100DA0004103DC0000F110031B5943F0200401EB68
:100DB0004103DD0000F110035C5130BD30B5012A64
:100DC0000ED101EB4103DC0000F110031B5943F489
:100DD000802401EB4103DD0000F110035C510DE0C4
:100DE00001EB4103DC0000F110031B5923F48024C4
:100DF00001EB4103DD0000F110035C5130BD024600
:100E000001EB4100C30002F12400C05800F038009B
:100E1000704710B5034604290FDA01EB4100440086
:100E2000C1F3400004EB800402FA04F01C68204087
:100E300008B1012010BD0020FCE7081FC1B201EB82
:100E400041004400C1F3400004EB800402FA04F0C6
:100E50005C68204008B10120ECE70020EAE710B50B
:100E600004290CDA01EB41035C00C1F3400304EBFD
:100E7000830302FA03F38468234383600DE00B1FAE
:100E8000D9B201EB41035C00C1F3400304EB8303DF
:100E900002FA03F3C4682343C36010BD30B5802A4F
:100EA0000DD001EB4103DC0000F110031B5913438B
:100EB00001EB4104E50000F1100463510CE001EB8B
:100EC0004103DC0000F124031B59134301EB4104EF
:100ED000E50000F12404635130BD30B5802A0DD007
:100EE00001EB4103DC0000F110031B59934301EBBC
:100EF0004104E50000F1100463510CE001EB4103F3
:100F0000DC0000F124031B59934301EB4104E5008D
:100F100000F12404635130BDF0B5034600250026DE
:100F20000C46042979DA082A34D004DC012A07D0D7
:100F3000042A70D119E0102A41D0202A6BD153E045
:100F400001EB41004700C1F3400007EB800702FAC4
:100F500007F01F6800EA070601EB4100C70003F134
:100F60002400C05900F0800556E001EB4100470025
:100F7000C1F3400007EB800702FA07F01F6800EAA0
:100F8000070601EB4100C70003F11000C05900F053
:100F9000020541E001EB41004700C1F3400007EBCF
:100FA000800702FA07F01F6800EA070601EB41001C
:100FB000C70003F11000C05900F004052CE001EB5C
:100FC00041004700C1F3400007EB800702FA07F039
:100FD0001F6800EA070601EB4100C70003F110009B
:100FE000C05900F0080517E001EB41004700C1F3CC
:100FF000400007EB800702FA07F01F6800EA0706C7
:1010000001EB4100C70003F11000C05900F01005CA
:1010100002E002E0FFE700BF7AE0201FC4B2082A26
:1010200034D004DC012A07D0042A6FD119E0102A39
:1010300041D0202A6AD153E004EB44004700C4F3B6
:10104000400007EB800702FA07F05F6800EA070636
:1010500001EB4100C70003F12400C05900F08005F6
:1010600055E004EB44004700C4F3400007EB800761
:1010700002FA07F05F6800EA070601EB4100C700CB
:1010800003F11000C05900F0020540E004EB4400F9
:101090004700C4F3400007EB800702FA07F05F68DF
:1010A00000EA070601EB4100C70003F11000C05938
:1010B00000F004052BE004EB44004700C4F34000BB
:1010C00007EB800702FA07F05F6800EA070601EB0A
:1010D0004100C70003F11000C05900F0080516E0F8
:1010E00004EB44004700C4F3400007EB800702FA1A
:1010F00007F05F6800EA070601EB4100C70003F153
:101100001000C05900F0100501E0FFE700BF00BF6C
:1011100016B10DB10120F0BD0020FCE710B5042987
:101120000CDA01EB41035C00C1F3400304EB8303E1
:1011300002FA03F38468234383600DE00B1FD9B2E6
:1011400001EB41035C00C1F3400304EB830302FAAB
:1011500003F3C4682343C36010BD00000020574957
:101160000860091D0860091D0860091D0860091D47
:101170000860704710B5514B1B6883434F4C236088
:10118000231D1B688343241D2360231D1B68834389
:10119000241D2360231D1B688343241D236011B17C
:1011A00001290ED105E0454B1B680343434C2360E6
:1011B00008E0424B1B1D1B680343404C241D236069
:1011C00000E000BF00BF32B1012A11D0022A1CD0BA
:1011D000032A27D127E0394B08331B680343374CD8
:1011E00008342360231D1B688343241D23601BE0F8
:1011F000324B08331B688343304C08342360231D73
:101200001B680343241D23600EE02C4B08331B682E
:1012100003432A4C08342360231D1B680343241D09
:10122000236001E000BF00BF00BF10BD2349096873
:101230000143224A116070472049096881431F4ACF
:10124000116070471D49091D096801431B4A121DA1
:10125000116070471949091D09688143174A121D19
:10126000116070471549103109680143134A103263
:101270001160704711491031096881430F4A1032DB
:101280001160704701460D4814300068084008B1ED
:10129000012070470020FCE70849143108607047BE
:1012A0000146064814300068084008B10120704724
:1012B0000020FCE70149143108607047003C014000
:1012C000FD4A116821F00F0141EA0002FA4B1A6051
:1012D0007047F9481030006800F0004028B1F74826
:1012E000F549091D0860F64808607047F24810305B
:1012F000006840F00040F04910310860704700205D
:10130000ED4A0C32116801F480320AB1012019E073
:1013100001F480720AB1022014E001F080020AB1E7
:1013200003200FE001F040020AB104200AE001F0BE
:1013300010020AB1052005E001F002020AB1062000
:1013400000E00020704710B50346012400BFFFF7FE
:10135000D6FF04465B1E012C01D1002BF7D103B947
:101360000724204610BD30B5044600256FF03040FC
:10137000FFF7E9FF054635BBCF481030006820F085
:10138000F800CD49103108600846006844F00201B9
:101390000843C949103108600846006840F48030AD
:1013A00008606FF03040FFF7CEFF0546C2481030AE
:1013B000006820F00200C04910310860084600684B
:1013C00020F0F8000860284630BD10B500246FF00A
:1013D0003040FFF7B8FF0446DCB9B748103000686A
:1013E00048F204010843B449103108600846006817
:1013F00040F4803008606FF03040FFF7A4FF0446EF
:10140000AD481030006848F204018843AA49103101
:101410000860204610BD10B500246FF03040FFF783
:1014200092FF0446CCB9A4481030006840F0040094
:10143000A149103108600846006840F48030086017
:101440006FF03040FFF77FFF04469B481030006884
:1014500020F00400984910310860204610BD10B5F6
:1014600000246FF03040FFF76EFF0446CCB992487D
:101470001030006840F400408F4910310860084681
:10148000006840F4803008606FF03040FFF75BFF89
:10149000044689481030006820F400408649103125
:1014A0000860204610BD70B504460D4600266FF05A
:1014B0003040FFF748FF0646FEB97F48103000680D
:1014C00020F440707C49103108600846006840F400
:1014D000007008600846006840F001000860256060
:1014E0006FF03040FFF72FFF06467348103000685A
:1014F00020F00100704910310860304670BD70B5B1
:1015000004460D4600266FF03040FFF71CFF0646EC
:10151000FEB969481030006820F440706649103107
:1015200008600846006840F480700860084600685B
:1015300040F00100086025806FF03040FFF703FFA6
:1015400006465D481030006820F001005A4910310D
:101550000860304670BD70B504460D4600266FF039
:101560003040FFF7F0FE0646EEB9534810300068F1
:1015700020F4407050491031086008460068086047
:101580000846006840F00100086025706FF03040A8
:10159000FFF7D9FE064648481030006820F00100E9
:1015A000454910310860304670BD4348143000682A
:1015B00000F0010028B143483F4908310860424823
:1015C000086070473C481430006840F001003A4918
:1015D00014310860704738481430006840F0020049
:1015E000354914310860704770B500266FF03040FF
:1015F000FFF7A9FE0646304814300468001D056850
:10160000AEB944F0E00444F00C0424F0100424F0DB
:1016100080442E48044324F00044274814300460DA
:101620002A480543244818300560001F046070BD37
:10163000F0B50446204814300568001D06680027F0
:10164000001F006800F0004008B10020F0BD6FF0FE
:101650003040FFF778FE07465FB925EA0445200CC5
:1016600000048643144814300560001D0660012004
:10167000ECE70020EAE7F0B504460F4814300568AF
:10168000001D06680027001F006800F0004008B138
:101690000020F0BD6FF03040FFF755FE0746BFB9A0
:1016A00045EA0445200C0004064303481430056055
:1016B000001D06600120ECE7003C02402301674565
:1016C000AB89EFCD3B2A19087F6E5D4C0000FF0F00
:1016D0000020DEE72DE9F041054683480468001D3F
:1016E00006680027001F006800F000486FF03040D7
:1016F000FFF729FE074687B9B8F1000F02D17B48F2
:101700000440064044EA054444F00044280C000428
:10171000064375480460001D0660BDE8F08170B5A1
:1017200071480468001D056800266FF03040FFF71F
:101730000AFE0646FEB9C4F30720AA280AD124F4FB
:101740007F4444F42B4468480460006840F0020081
:101750006549086024F47F4444F42A446348C04344
:10176000044324F00044604804606048C0430543DB
:101770005D48001D056070BD30B5044600256FF062
:101780003040FFF7E0FD05463DB95749086820F4B1
:101790007F4040EA0420086000BF30BDF0B5044639
:1017A0000D46164600276FF03040FFF7CCFD074688
:1017B00057B94D49086820F0E00040EA0401294388
:1017C0003143494A116000BFF0BD474A116821F01A
:1017D0000C0141EA0002444B1A607047424A11680A
:1017E00021F0100141EA00023F4B1A6070473E4869
:1017F0000068C0F3421070473B480068C0F30B40DC
:1018000070473948001D0068C0F30B4070473648E8
:10181000006800F0004020B133480068C0F30B407E
:1018200070474FF47040FBE72F48006800F000401D
:1018300028B12D48001D0068C0F30B4070474FF4DD
:101840007040FBE7002028490968C1F30721AA2955
:1018500001D0012000E0002070472348006800F01C
:101860000C0070470146204808380068084008B15D
:10187000012070470020FCE71B49083908607047C9
:101880001949091F09680143174A121F116070475F
:101890001549091F09688143134A121F11607047D7
:1018A000014601290CD11048001F006800F080702B
:1018B00098B10D4808380068084070B101207047A1
:1018C0000948001F006800F0007030B10648083871
:1018D0000068084008B10120F1E70020EFE7024965
:1018E0000839086070470000143C0240FFFF00F018
:1018F00010B50446C4F3090000285DD1A012A0F57C
:1019000080108038092857D2DFE800F0050E172034
:1019100029323B444D004FF4806000F0B5FA4FF49B
:10192000806000F0C1FA48E040F2014000F0ACFAFB
:1019300040F2014000F0B8FA3FE040F2024000F00F
:10194000A3FA40F2024000F0AFFA36E040F2034062
:1019500000F09AFA40F2034000F0A6FA2DE040F2BF
:10196000044000F091FA40F2044000F09DFA24E0B7
:1019700040F2054000F088FA40F2054000F094FA89
:101980001BE040F2064000F07FFA40F2064000F013
:101990008BFA12E040F2074000F076FA40F207407E
:1019A00000F082FA09E04FF4816000F06DFA4FF424
:1019B000816000F079FA00E000BF00BF10BDF0B513
:1019C00004460D4616462168E268002019E001270A
:1019D00087401F409FB14FEA400C032707FA0CF7DE
:1019E000B943470005FA07F739434FEA400C03278C
:1019F00007FA0CF7BA43470006FA07F73A43471CC1
:101A0000B8B21028E3D32160E260F0BDF0B50C4617
:101A10001546012C03D146681E43466002E0466825
:101A20009E434660826800210DE001268E401E40E4
:101A30003EB14F000326BE40B2434E0005FA06F603
:101A400032434E1CB1B21029EFD38260F0BD8161E8
:101A50007047816270470AB1816100E0816270471E
:101A60004161704702461069084008B10120704783
:101A70000020FCE70146086980B2704702465069C1
:101A8000084008B1012070470020FCE70146486982
:101A900080B27047F0B503461C6A5D6A00200DE015
:101AA0000126864016403EB187000F26BE40B44353
:101AB000860001FA06F63443461CB0B20828EFD37C
:101AC000082011E00126864016405EB1A0F108060C
:101AD000B7000F26BE40B543A0F10806B60001FAD4
:101AE00006F63543461CB0B21028EBD31C625D628B
:101AF000F0BD4FF480320A43C261C161C261C26964
:101B0000C2697047C16270474FF6FF71C16270478A
:101B100045F255503E490860704700203C49086036
:101B200070474CF6CC403A490860704710B5014602
:101B3000384B002245F25550354C206000BF3448E8
:101B4000C06800F00102581E031E01D0002AF6D121
:101B50000AB1002010BD2E4841600120FAE710B5FF
:101B600001462C4B002245F25550294C206000BF05
:101B70002748C06800F00202581E031E01D0002A48
:101B8000F6D10AB1002010BDC1F30B00204CA060BB
:101B90000120F8E74AF6AA201D490860704730B5D1
:101BA00002460B461B4C002145F25550184D28604B
:101BB00000BF1748C06800F00101601E041E01D07C
:101BC0000029F6D109B1002030BD11484360114C05
:101BD00000BF0F48C06800F00201601E041E01D063
:101BE0000029F6D109B10020EEE7C2F30B00084D41
:101BF000A8604AF6AA2028600120E5E701460448CB
:101C0000C068084008B1012070470020FCE70000D0
:101C100000300040FFFF0F000146F94A02EB91102F
:101C2000D0F8000801F01F0301229A40104008B1CB
:101C3000012070470020FCE7F0B50646002400278D
:101C400000251C2E7DD007DCB6B3102E10D0182E28
:101C500067D01A2E76D176E0B6F5E05F19D0B6F5EA
:101C6000E85F4CD0A6F5405010380028F2D134E09F
:101C700004E01120FFF7D0FF0546641C1DB94FF6A4
:101C8000FF708442F5D11120FFF7C6FF00B1012794
:101C90007AE005E041F60140FFF7BEFF0546641C0F
:101CA0001DB96FF070408442F4D141F60140FFF756
:101CB000B3FF00B1012767E0FFE704E00120FFF771
:101CC000ABFF0546641C15B9B4F5A06FF6D1012031
:101CD000FFF7A2FF00B1012756E005E043F2110033
:101CE000FFF79AFF0546641C15B9C6488442F5D132
:101CF00043F21100FFF790FF00B1012744E005E037
:101D000041F60150FFF788FF0546641C15B9BD4830
:101D10008442F5D141F60150FFF77EFF00B1012763
:101D200032E004E01920FFF777FF0546641C15B97F
:101D3000B4488442F6D11920FFF76EFF00B10127A5
:101D400022E010E01FE004E01B20FFF765FF0546DE
:101D5000641C15B9AB488442F6D11B20FFF75CFF29
:101D600000B1012710E004E01D20FFF755FF0546F4
:101D7000641C15B9A3488442F6D11D20FFF74CFF1F
:101D800000B1012700E000BF00BF3846F0BD00B53C
:101D90009D48006840F001009B4908600020FFF763
:101DA0004BFF99480830006820F00300964908313D
:101DB00008609548006895490840934908600846BE
:101DC000006820F4802008608F480830006800F424
:101DD00043708D49083108608D48091F08608C48A0
:101DE00010388949843108608948091D086000203D
:101DF00085490C31086084488C300068854908406A
:101E000081498C31086000BD7D4A02EB9011D1F808
:101E1000001800F01F0301229A401143784B03EB96
:101E20009012C2F800187047754A02EB9011D1F871
:101E3000001800F01F0301229A409143704B03EBFE
:101E40009012C2F8001870476D4A02EB9011D1F859
:101E5000001800F01F0301229A401143684B03EB66
:101E60009012C2F800187047654A02EB9011D1F841
:101E7000001800F01F0301229A409143604B03EBCE
:101E80009012C2F8001870475D4A02EB9011D1F829
:101E9000001800F01F0301229A401143584B03EB36
:101EA0009012C2F800187047554A02EB9011D1F811
:101EB000001800F01F0301229A409143504B03EB9E
:101EC0009012C2F8001870474F487030006840F414
:101ED00080304D497031086070474B487030006861
:101EE00020F480304849703108607047464A083213
:101EF000116821F0030141EA0002434B08331A60E4
:101F0000704741480830006800F00C0070473E4AB6
:101F10000832116821F0F00141EA00023A4B08331F
:101F20001A607047384A0832116821F4E05141EADA
:101F30000002354B08331A607047334A0832116883
:101F400021F4604141EA00022F4B08331A607047C8
:101F500010B52D4B08331A6822F0EC6242EA0003F8
:101F60000B43294C0834236010BD10B5264B0833B1
:101F70001A6822F0784242EA00030B43224C0834EC
:101F8000236010BDF0B50646059C00251E48803034
:101F9000076807F00040B0F1004F07D107F080401C
:101FA000B0F1804F01D1ED1D00E06D1D022933D34A
:101FB0003F2931D805F1400090422DD8B2F5FA7F83
:101FC0002AD8022B05D0042B03D0062B01D0082BD6
:101FD00022D1022C20D30F2C1ED841EA82104FF0C0
:101FE000010CCCEB530C40EA0C40304340EA046057
:101FF000DFF814C00CF1040CCCF800000EE0000077
:1020000000300240FFFF0F0000380240FFFFF6EAF9
:1020100010300024FFFFFCFE0020F0BD0120FCE793
:102020000246322A0CD3B2F5FA7F09D8022907D327
:10203000072905D8900140EA0170F94B186001E0CA
:10204000002070470120FCE710B50346322B1AD35D
:10205000B3F5FA7F17D8022905D0042903D0062941
:1020600001D008290FD1022A0DD3072A0BD89801D5
:102070000124C4EB510440EA044040EA0270E84CF9
:10208000241D206001E0002010BD0120FCE7E44A8F
:10209000143A116821F4407141EA0002E04B143B0C
:1020A0001A607047DE4A7C3A116821F4F81141EA5F
:1020B0000002DB4B7C3B1A607047D94A7C3A1168BE
:1020C00021F4000141EA0002D54B7C3B1A607047C5
:1020D000D34A3C32116821F0010141EA0002D04BA1
:1020E0003C331A607047CE4A3C32116821F002013D
:1020F00041EA0002CA4B3C331A6070476FF08071AE
:10210000884207D1C649083109680140C44A0832EB
:10211000116006E0C249083109680143C04A08322B
:1021200011607047BE4A0832116821F4403141EA1B
:102130000002BB4B08331A607047B94A143A116861
:1021400021F0080141EA0002B54B143B1A607047C8
:10215000B44A02EB9011D1F8001800F01F030122DD
:102160009A401143AF4B03EB9012C2F8001870472E
:10217000AC4A02EB9011D1F8001800F01F030122C5
:102180009A409143A74B03EB9012C2F80018704796
:1021900001461C2932D007DC59B310290FD0182969
:1021A0002AD01A292BD128E0B1F5E05F14D0B1F57F
:1021B000E85F20D0A1F54052103A02BB1AE0984ADD
:1021C000843A1068126822F48032954B843B1A607E
:1021D00040F480221A6013E0914A143A10681268A1
:1021E00022F001028E4B143B1A6040F004021A6088
:1021F00006E000BF00BF00BF00BF00BF00E000BF9F
:1022000000BF704701461C2932D007DC59B31029A2
:102210000FD018292AD01A292BD128E0B1F5E05F78
:1022200014D0B1F5E85F20D0A1F54052103A02BBBE
:102230001AE07B4A843A1068126822F48032784BA4
:10224000843B1A6020F480221A6013E0744A143A26
:102250001068126822F00102714B143B1A6020F0E2
:1022600004021A6006E000BF00BF00BF00BF00BF4D
:1022700000E000BF00BF7047694A843A116821F04E
:10228000F80100F01F0241EAC202654B843B1A606C
:10229000704730B5624C241F236803F0304343EA93
:1022A000000444EA413414435D4D2D1F2C6030BDC1
:1022B0005B48001F006840F000405949091F086052
:1022C00070475748001F006820F000405449091F1C
:1022D0000860704752488438006840F40020504934
:1022E0008439086070474E488438006820F4002024
:1022F0004B498439086070474B4849497C31086034
:10230000704700F007004649B031086070472DE97A
:10231000F04F8CB0064600200A9044A090E8004C94
:10232000C068CDE905BECDF810A007900FF2001AE5
:10233000DAE9000ACDE9020A0FF2F40ADAE9000A42
:10234000CDE9000A36487C380068C0F381000B9064
:102350000B9820B1012804D0022828D103E0374986
:1023600027E0374925E02E488038006800F03F0715
:102370002B4880380068C0F3881C294880380068E2
:10238000C0F30140401C4FEA4009254880380068EE
:1023900000F48008B8F5800F01D1294B00E0274BED
:1023A000B3FBF7F000FB0CF0B0FBF9F101E02349BF
:1023B00000BF00BF1A487C380068C0F3031404A8AB
:1023C000055D21FA05F216487C380068C0F38224C6
:1023D00002A8055D22FA05F0099011487C380068D2
:1023E000C0F342341DF8045022FA05F0089036B1CB
:1023F000012E06D0022E06D0032E0AD106E00A9145
:1024000008E00A9206E009980A9003E008980A900A
:1024100000E000BF00BF0A980CB0BDE8F08F0000DC
:1024200084380240003002404D3C2B1A000000006E
:102430000000000001020304060708090024F4005C
:1024400000127A002348006840F08070214908603B
:1024500070470146204A02EB9110D0F8000801F0C5
:102460001F0301229A40104008B10120704700204C
:10247000FCE7194A02EB9011D1F8001800F01F0395
:1024800001229A401143144B03EB9012C2F800183A
:102490007047114A02EB9011D1F8001800F01F03A9
:1024A00001229A4011430C4B03EB9012C2F8001822
:1024B0007047094A02EB9011D1F8001800F01F0391
:1024C00001229A409143044B03EB9012C2F800188A
:1024D00070470000743802400030024010B540F6EA
:1024E0000E10FFF7D1FC40F60E10FFF7DDFC10BD1B
:1024F0004849096821F00701464A116011460968F8
:10250000014311607047434A116821F4807141EA28
:102510000002404B1A6070473E4A116821F4406146
:1025200041EA00023B4B1A60704770B504460B4607
:10253000CD1701EB9575AD10A1EB8505AE000F250C
:10254000B540E843CD1701EB9575AD10A1EB8505BE
:10255000AD0004FA05F2CD1701EB9575AD1035B15C
:10256000012D10D0022D1AD0032D30D123E0294B9C
:1025700008331B680340274D08352B602B461B682A
:1025800013432B6024E0234B0C331B680340214D85
:102590000C352B602B461B6813432B6018E01D4B3A
:1025A00010331B6803401B4D10352B602B461B68F6
:1025B00013432B600CE0174B14331B680340154D7D
:1025C00014352B602B461B6813432B6000E000BFC3
:1025D00000BF70BD0F4A121D116821F4000141EACD
:1025E00000020C4B1B1D1A6070470A4A203211680A
:1025F00021F0010141EA0002064B20331A607047C6
:1026000004482030006800F4807008B10120704751
:102610000020FCE70038014010B50446FE49601A6E
:102620008C426FD019DCFD49A4EB01008C424ED0E6
:1026300009DCB4F1804F2ED0F9482044A0B3B0F5A6
:10264000806F72D13AE0B0F5806F49D0B0F5006F7D
:102650004FD0B0F5406FF4D17BE0B0F5923F5BD046
:1026600009DCB0F5806F73D0B0F5644F0AD0B0F5D7
:10267000684F5AD147E0B0F5943F57D0B0F5963F38
:1026800053D15CE04FF41060FFF7FEFB4FF4106095
:10269000FFF70AFC79E04FF40060FFF7F5FB4FF419
:1026A0000060FFF701FC70E0FFE740F60100FFF774
:1026B000EBFB40F60100FFF7F7FB66E040F6020097
:1026C000FFF7E2FB40F60200FFF7EEFB5DE040F6AD
:1026D0000300FFF7D9FB40F60300FFF7E5FB54E0EA
:1026E00040F60400FFF7D0FB40F60400FFF7DCFBE8
:1026F0004BE040F60500FFF7C7FB40F60500FFF78B
:10270000D3FB42E02EE040F60110FFF7BDFB40F6A0
:102710000110FFF7C9FB38E04FF41160FFF7B4FB7D
:102720004FF41160FFF7C0FB2FE02DE040F61110D1
:10273000FFF7AAFB40F61110FFF7B6FB25E040F6C5
:102740001210FFF7A1FB40F61210FFF7ADFB1CE0E3
:1027500011E040F60600FFF797FB40F60600FFF792
:10276000A3FB12E040F60700FFF78EFB40F60700E0
:10277000FFF79AFB09E040F60800FFF785FB40F6FB
:102780000800FFF791FB00E000BF00BF10BD002173
:102790000180418081804FF6FF7181600021C180FE
:1027A000017370470A8882629E4A90420FD0B0F14E
:1027B000804F0CD09A4A5242904208D09A4A904296
:1027C00005D0964A904202D0984A90420BD10268B6
:1027D00022F07002026002684B881A4302600268AD
:1027E0008B881A4302608A68C262914A90420AD07A
:1027F000904A904207D0026822F440720260026858
:10280000CB881A430260874A904202D0874A90429E
:1028100001D10A7B0263426942F0010242617047C2
:10282000016841F0010101607047016821F0010178
:1028300001607047016841F08001016070470168E4
:1028400021F0800101607047016821F00201016000
:102850007047016841F0020101607047026822F090
:102860006002026002680A4302607047016821F05A
:10287000100101607047016841F01001016070476C
:1028800081621AB9436943F00103436170470163F0
:102890007047C16270474162704701460020486A34
:1028A0007047014600208A6A90B2704721B90268D9
:1028B00042F00802026005E0012903D1026822F01B
:1028C00008020260704721B9026842F00402026007
:1028D00005E0012903D1026822F00402026070477A
:1028E000C2680A43C2607047C2688A43C2607047C8
:1028F00021B9426842F00802426005E0012903D193
:10290000426822F008024260704710B5836C41F6BD
:102910001F74A3438364836C41EA020423438364EA
:1029200010BD42690A434261704700210180418025
:102930008180C18001814181818170470A884B88F3
:102940001A438B881A43CB881A430B891A434B8945
:102950001A438B891A4342647047416C41F4805199
:1029600041647047416C21F4805141647047416C6F
:1029700041F4804141647047416C21F480414164DD
:102980007047012904D1426C42F40042426403E0E2
:10299000426C22F4004242647047012904D142682B
:1029A00042F00102426003E0426822F0010242600C
:1029B000704721B9426822F00402426005E0012913
:1029C00003D1426842F00402426070470021018056
:1029D00041808180C18001814181704710B531B152
:1029E000012950D002297DD003297CD1D0E0036A8F
:1029F00023F001030362836923F003038361036A05
:102A0000148823430362036A23F002030362036A08
:102A10009488234303620FE0001C0040000C004038
:102A200000FCFFBF0000014000080040000401401E
:102A30000010004000140040FA4B984202D0FA4BBC
:102A400098421FD1036A23F004030362036A548887
:102A500023430362036A23F008030362036AD488F2
:102A600023430362436823F48073436043681489FB
:102A700023434360436823F40073436043685489ED
:102A800023434360ABE0036A23F0100303628369CE
:102A900023F440738361036A148843EA04130362D6
:102AA000036A23F020030362036A948843EA041351
:102AB0000362DC4B984202D0DB4B984226D1036A7A
:102AC00023F040030362036A548843EA0413036259
:102AD000036A23F080030362036AD48843EA041381
:102AE000036201E013E079E0436823F4806343600C
:102AF0004368148943EA84034360436823F4006312
:102B000043604368548943EA8403436067E0036A8F
:102B100023F480730362C36923F00303C361036A70
:102B2000148843EA04230362036A23F400730362F4
:102B3000036A948843EA04230362BA4B984202D0A2
:102B4000B94B984223D1036A23F480630362036A7A
:102B5000548843EA04230362036A23F40063036294
:102B6000036AD48843EA04230362436823F480534E
:102B700043604368148943EA04134360436823F4C1
:102B8000005343604368548943EA0413436026E0DA
:102B9000036A23F480530362C36923F44073C3615F
:102BA000036A148843EA04330362036A23F400537C
:102BB0000362036A948843EA04330362994B9842A0
:102BC00002D0994B984208D1436823F48043436074
:102BD0004368148943EA8413436000E000BF00BFE8
:102BE00010BD31B101290CD0022913D0032922D103
:102BF00018E0836923F07003836183691343836161
:102C00001AE0836923F4E0438361836943EA022382
:102C1000836111E0C36923F07003C361C369134387
:102C2000C36109E0C36923F4E043C361C36943EAB4
:102C30000223C36100E000BF00BF704731B101292A
:102C400006D0022906D0032908D105E0426306E038
:102C5000826304E0C26302E0026400E000BF00BFE0
:102C6000704731B101290CD0022913D0032922D198
:102C700018E0836923F00803836183691343836148
:102C80001AE0836923F400638361836943EA0223C2
:102C9000836111E0C36923F00803C361C36913436F
:102CA000C36109E0C36923F40063C361C36943EAF4
:102CB0000223C36100E000BF00BF704731B10129AA
:102CC0000CD0022913D0032922D118E0836923F004
:102CD000040383618369134383611AE0836923F4E6
:102CE00080638361836943EA0223836111E0C369DE
:102CF00023F00403C361C3691343C36109E0C369DB
:102D000023F48063C361C36943EA0223C36100E023
:102D100000BF00BF704731B101290CD0022913D088
:102D2000032922D118E0836923F08003836183693A
:102D3000134383611AE0836923F400438361836949
:102D400043EA0223836111E0C36923F08003C36176
:102D5000C3691343C36109E0C36923F40043C3613A
:102D6000C36943EA0223C36100E000BF00BF7047AC
:102D700031B101290CD0022913D0032923D119E044
:102D8000036A23F002030362036A134303621BE036
:102D9000036A23F020030362036A43EA0213036217
:102DA00012E0036A23F400730362036A43EA022316
:102DB000036209E0036A23F400530362036A43EAEF
:102DC0000233036200E000BF00BF704721B1012958
:102DD0000AD002291AD110E0036A23F00803036223
:102DE000036A1343036212E0036A23F08003036261
:102DF000036A43EA0213036209E0036A23F40063EF
:102E00000362036A43EA0223036200E000BF00BFDB
:102E1000704759B1012911D0022918D0032928D1AE
:102E20001EE000000000014000040140036A23F09E
:102E300001030362036A134303621BE0036A23F086
:102E400010030362036A43EA0213036212E0036A97
:102E500023F480730362036A43EA0223036209E0F6
:102E6000036A23F480530362036A43EA0233036272
:102E700000E000BF00BF704721B101290AD002293C
:102E80001AD110E0036A23F004030362036A1343B8
:102E9000036212E0036A23F040030362036A43EA19
:102EA0000213036209E0036A23F480630362036A86
:102EB00043EA0223036200E000BF00BF7047002125
:102EC00001800121418000218180C180704731B1A2
:102ED00001290CD0022913D0032922D118E08369DB
:102EE00023F00C0383618369134383611AE08369D0
:102EF00023F440638361836943EA0223836111E021
:102F0000C36923F00C03C361C3691343C36109E0C0
:102F1000C36923F44063C361C36943EA0223C36105
:102F200000E000BF00BF704770B504460E4615466E
:102F300036B1012E26D0022E48D0032E7DD168E076
:102F4000206A20F001002062206A20F00A0020623E
:102F5000206A298808432062A06920F00300A0614C
:102F6000A06969880843A061A06920F0F000A06111
:102F7000A069E98840EA0110A061206A40F00100E0
:102F800020626DE0206A20F010002062206A20F0AC
:102F9000A0002062206A298840EA01102062A0690E
:102FA00020F44070A061A069698840EA0120A06116
:102FB000A06920F47040A061A069E98840EA01306E
:102FC000A061206A40F01000206249E0206A20F4ED
:102FD00080702062206A20F420602062206A2988A4
:102FE00040EA01202062E06920F00300E061E0692E
:102FF00069880843E061E06920F0F000E061E06981
:10300000E98840EA0110E061206A40F480702062A3
:1030100026E0206A20F480502062206A20F40050CC
:103020002062206A298840EA01302062E06920F4A9
:103030004070E061E069698800E010E040EA01204A
:10304000E061E06920F47040E061E069E98840EA0D
:103050000130E061206A40F48050206200E000BF4F
:1030600000BFAA8831462046FFF731FF70BD0246F7
:10307000002031B1012906D0022906D0032908D148
:1030800005E0506B06E0906B04E0D06B02E0106C42
:1030900000E000BF00BF70472DE9F04104460E4636
:1030A00015460027B846288808B9022700E00027FF
:1030B0006888012802D14FF0020801E04FF00108B2
:1030C000002E4CD1206A20F001002062206A20F0FE
:1030D0000A002062206A298808432062A06920F043
:1030E0000300A061A06969880843A061A06920F07D
:1030F000F000A061A069E98840EA0110A061206A9F
:1031000040F001002062AA8800212046FFF7DFFE80
:10311000206A20F010002062206A20F0A0002062C7
:10312000206A40EA07102062A06920F44070A06184
:10313000A06940EA0820A061A06920F47040A06165
:10314000A069E98840EA0130A061206A40F01000DF
:103150002062AA8801212046FFF7B9FE4CE0206AD0
:1031600020F010002062206A20F0A0002062206A77
:10317000298840EA01102062A06920F44070A06113
:10318000A069698840EA0120A061A06920F470402C
:10319000A061A069E98840EA0130A061206A40F09E
:1031A00010002062AA8801212046FFF790FE206AC5
:1031B00020F001002062206A20F00A002062206ACC
:1031C00038432062A06920F00300A061A06940EAB2
:1031D0000800A061A06920F0F000A061A069E98862
:1031E00040EA0110A061206A40F001002062AA8834
:1031F00000212046FFF76BFEBDE8F08121B942684F
:1032000042F08002426005E0012903D1426822F0C9
:10321000800242607047826822F070028260826899
:103220000A4382607047426822F07002426042683E
:103230000A4342607047826822F007028260826817
:103240000A438260704721B9826842F0800282603E
:1032500005E0012903D1826822F080028260704774
:1032600030B5846824F43F448460846841EA0205F0
:103270002C438460846844EA0324846030BD30B504
:10328000846824F00704846084680C438460846943
:1032900040F20335AC438461846940F201152C434C
:1032A0008461046A24F00A040462046A24F0A0041D
:1032B0000462046A42EA03152C43046230BD81684B
:1032C00021F007018160704710B503460C46214686
:1032D0001846FFF7A0FF986820F0070098609868EC
:1032E00040F00700986010BD70B504460E461546C4
:1032F000602E20D1206A20F010002062206A20F089
:10330000A0002062206A40EA05102062A06920F433
:103310004070A061A06940F48070A061A06920F4B1
:103320007040A061A06940EA0330A061206A40F0CB
:10333000100020621EE0206A20F001002062206A56
:1033400020F00A002062206A28432062A06920F051
:103350000300A061A06940F00100A061A06920F015
:10336000F000A061A06940EA0310A061206A40F06B
:103370000100206231462046FFF74DFFA06820F093
:103380000700A060A06840F00700A06070BDF0B525
:1033900004460D4616461F463B4632462946204601
:1033A000FFF75EFFA06820F07700A060A06840F003
:1033B0007700A060F0BDF0B504460D4616461F46E6
:1033C0003B46324629462046FFF74AFFA06840F4B4
:1033D0008040A060F0BD816821F480418160704729
:1033E00001657047022906D1D0F8FC2042F00202A4
:1033F000C0F8FC2006E029B9D0F8FC2022F0020237
:10340000C0F8FC207047012906D1D0F8FC2042F01A
:103410000102C0F8FC2006E029B9D0F8FC2022F017
:103420000102C0F8FC20704702461069084008B14C
:10343000012070470020FCE7CA4302617047C26860
:103440000A43C2607047C2688A43C260704702463E
:10345000D06800EA01031069084010B10BB10120E7
:1034600070470020FCE7CA430261704710B504466C
:10347000F849601A8C424DD00CDCF7482044E0B18A
:10348000B0F5806F22D0B0F5006F31D0B0F5406F4D
:1034900052D136E0B0F5806F45D0B0F5184F03D06B
:1034A000B0F51C4F48D11AE040F60410FEF7ECFCD2
:1034B00040F60410FEF7F8FC3FE040F61100FEF77E
:1034C000E3FC40F61100FEF7EFFC36E040F6120098
:1034D000FEF7DAFC40F61200FEF7E6FC2DE040F6BF
:1034E0000510FEF7D1FC40F60510FEF7DDFC24E0E8
:1034F00040F61300FEF7C8FC40F61300FEF7D4FCBC
:103500001BE040F61400FEF7BFFC40F61400FEF787
:10351000CBFC12E040F61E00FEF7B6FC40F61E00A3
:10352000FEF7C2FC09E040F61F00FEF7ADFC40F6D6
:103530001F00FEF7B9FC00E000BF00BF10BD2DE981
:10354000F04704460D460027B846B9460026C14953
:10355000601A8C4235D00CDCBF482044E8B1B0F58D
:10356000806F1FD0B0F5006F21D0B0F5406F32D121
:1035700022E0B0F5806F29D0B0F5184F03D0B0F538
:103580001C4F28D104E00320FEF7C1FE074623E0CC
:103590000320FEF7BCFE07461EE00220FEF7B7FE42
:1035A000074619E00220FEF7B2FE074614E00220AB
:1035B000FEF7ADFE07460FE00220FEF7A8FE074625
:1035C0000AE00220FEF7A3FE074605E00220FEF710
:1035D0009EFE074600E000BF00BFE06800F4004028
:1035E00070B1780000EB5500B0FBF5F64FF6F070C7
:1035F00006EA0008C6F3420948EA0900A0600CE0A8
:1036000007EB5500B0FBF5F64FF6F07006EA000840
:1036100006F00F0948EA0900A060BDE8F087C2681B
:1036200022F4C062C260C2680A43C2607047C268C6
:1036300022F48052C260C2680A43C26070470269C5
:1036400022F44052026102690A4302617047C16874
:1036500041F40051C1607047C16821F40051C1605C
:1036600070470A460021C16821F008011143C1607A
:1036700070470A460021C16821F004011143C1606E
:1036800070470A460021D0F8801021F400611143F0
:10369000C0F88010704706292ED2DFE801F0031829
:1036A0000A1F1126D0F8802042F48062C0F88020E2
:1036B00023E0D0F8802042F40072C0F880201CE0A3
:1036C000D0F8802042F48072C0F8802015E0D0F855
:1036D000802022F48062C0F880200EE0D0F88020A4
:1036E00022F40072C0F8802007E0D0F8802022F495
:1036F0008072C0F8802000E000BF00BF7047C26841
:1037000022F40042C260C2680A43C2607047426944
:1037100022F40062426142690A4342617047D0F874
:10372000801041F00101C0F880107047D0F880107F
:1037300021F00101C0F88010704750F8842F02F08A
:103740007F42026002680A4340F884297047C1F34F
:1037500008024260704701464868C0F3080070479D
:10376000026922F00F020261026901F00F031A439D
:1037700002617047C16841F00201C1607047C168D1
:1037800021F00201C1607047C26822F40062C26089
:10379000C2680A43C2607047016941F48041016117
:1037A0007047016921F4804101617047026922F08C
:1037B00020020261026901F020031A43026170478E
:1037C000C16841F00101C1607047416941F00801E1
:1037D00041617047416921F0080141617047016909
:1037E00041F4006101617047016921F400610161E8
:1037F000704730B5046924F4E064046101F4807416
:1038000002F400752C4303F480652C4305692C43B6
:10381000046130BD826922F47F42826182694FF483
:103820007F4303EA01231A4382617047416941F0F3
:10383000200141617047416921F0200141617047D9
:10384000416941F0100141617047416921F0100167
:10385000416170470078004000BCFFBF50F8802FE6
:1038600022F00E02026002680E2303EA41031A43AB
:1038700040F88029704750F8842F22F07F42026080
:1038800002684FF07F4303EA01631A4340F884293A
:103890007047416941F0020141617047416921F07F
:1038A000020141617047826922F0FF0282618269F0
:1038B0000A4382617047426922F004024261426910
:1038C00001F004031A4342617047426922F4807296
:1038D0004261426901F480731A4342617047426950
:1038E00022F400724261426901F400731A4342619A
:1038F000704750F8C02F22F004020260026801F005
:1039000004031A4340F8C029704750F8C02F22F032
:1039100002020260026801F002031A4340F8C02963
:10392000704750F8C02F22F001020260026801F0D7
:1039300001031A4340F8C0297047426922F040024F
:103940004261426901F040031A4342617047426993
:1039500022F080024261426901F080031A43426111
:10396000704710B5024602EB9110006801F01F0489
:103970000123A340184008B1012010BD0020FCE73E
:1039800010B543F2080291420BD100EB911212687C
:1039900001F01F040123A3409A4300EB91131A6026
:1039A00007E001F01F0301229A40D24300EB91137C
:1039B0001A6010BD10B500EB9112126801F01F04DF
:1039C0000123A3401A4300EB91131A6010BD10B5F8
:1039D00000EB9112126801F01F040123A3409A43E7
:1039E00000EB91131A6010BD70B50246002300244D
:1039F000C1F38910105801F01F060125B54000EAF7
:103A0000050302EB91500068C1F304460125B5405F
:103A100000EA050414B10BB1012070BD0020FCE7E1
:103A200010B500EB91521268C1F304440123A34086
:103A30009A4300EB91531A6010BD00004FF0E02153
:103A4000096921F001014FF0E02211611146096975
:103A500021F004011161C21700EB5272C2F3C702D8
:103A6000394B1A701946097801EB4102C2EBC111BA
:103A70004FF6FF7202EAC101344A118070470146D5
:103A8000314A12784A434FF0E0235A6100229A618A
:103A90001A46126942F001021A6100BF4FF0E0229B
:103AA000106900F001021AB100F48032002AF5D04A
:103AB0004FF0E022126922F001024FF0E0231A6178
:103AC00000229A6170470146204A12884A434FF00B
:103AD000E0235A6100229A611A46126942F00102FB
:103AE0001A6100BF4FF0E022106900F001021AB124
:103AF00000F48032002AF5D04FF0E022126922F063
:103B000001024FF0E0231A6100229A61704770B5FC
:103B100004464FF4077094FBF0F0C6B24FF4077000
:103B200094FBF0F100FB114085B205E04FF4077003
:103B3000FFF7C9FF701EC6B2002EF7D115B1284697
:103B4000FFF7C1FF70BD0000080000200A00002040
:103B50001FB5044641F20400FEF756F96A48FEF725
:103B60005BFD4AF20F40ADF800000020ADF8020006
:103B7000ADF804000120C0EB440002900020ADF835
:103B800006008DF80C0069465F48FEF70BFE012128
:103B90005D48FFF768FC01215B48FFF750FC0222FB
:103BA00001213620FCF7FDFC5748FEF73EFE1FBD05
:103BB00010B501215448FFF74AFC40B100F0EEFB7C
:103BC0005148FEF732FE01214F48FFF74CFC10BD73
:103BD0001FB5044641F20500FEF716F94AF20F4000
:103BE000ADF800000020ADF80200ADF8040001209F
:103BF000C0EB440002900020ADF806008DF80C00E8
:103C000069464248FEF7CEFD01214048FFF72BFCF4
:103C100001213E48FFF713FC012211463720FCF733
:103C2000C0FC3A48FEF701FE1FBD10B50121374820
:103C3000FFF70DFC012808D100F09CFD3348FEF78A
:103C4000F4FD01213148FFF70EFC10BD1FB541F214
:103C50000300FEF7D9F84AF20F40ADF8000000204B
:103C6000ADF80200ADF80400401E02900020ADF84F
:103C700006008DF80C0069462548FEF793FD0121EA
:103C80002348FFF7DCFB2248FEF7CAFD1FBD1FB526
:103C9000044641F21110FEF7B7F84AF20F40ADF8B2
:103CA00000000020ADF80200ADF804000121C1EBD6
:103CB000840002900020ADF806008DF80C006946E3
:103CC0001448FEF76FFD01211248FFF7CCFB0121DC
:103CD0001048FFF7B4FB032201211920FCF761FC17
:103CE0000C48FEF79DFD1FBD10B501210948FFF7E7
:103CF000AEFB012807D100F0ECFC00F04BFB0121EA
:103D00000448FFF7B0FB10BD001000400014004055
:103D1000000C00400044014000BF704770B50446ED
:103D20000D4600BF0721BC48FFF71BFE0028F9D055
:103D3000E1B2B948FFF70BFD204670BD10B504464F
:103D400041F21100FEF760F84FF44060FEF75CF8B6
:103D50000C220721B148FDF79DFE0C230122022110
:103D6000AE48FDF72CFE0C2302220021AB48FDF7E4
:103D70004DFEAB48FFF77AFB2146A948FFF7DFFB72
:103D80000021A748FFF753FC0021A548FFF757FC87
:103D90000021A348FFF743FC0021A148FFF795FD50
:103DA00000219F48FFF79BFD04219D48FFF761FC20
:103DB00008219B48FFF755FC9948FFF748FC40F263
:103DC00005319748FFF7F6FD032211462620FCF740
:103DD000E8FB10BD10B593499148FFF705FE50B1BF
:103DE00090498F48FFF71CFE8D48FFF7B4FCC4B222
:103DF000204600F0C3FC10BD00B589B040F6164067
:103E0000FEF702F807218848FCF768FC8248001D8D
:103E100000900120019085480290002003900490BA
:103E20000120059040200690002007904FF440307C
:103E300008906A4607217C48FCF7C8FC0422072149
:103E40007948FCF788FF80217348FFF780FD002246
:103E500011464620FCF7A5FB102207217248FDF70A
:103E60001DF809B000BD10B5044641F20410FDF77D
:103E7000CBFF4FF44060FDF7C7FF4FF4C06207214E
:103E80006648FDF707FE4FF4C06301220221634834
:103E9000FDF795FD4FF4C063032200215F48FDF755
:103EA000B5FD5D48FFF7E2FA21465B48FFF747FBA7
:103EB00000215948FFF7BBFB00215748FFF7BFFB24
:103EC00000215548FFF7ABFB00215348FFF7FDFCED
:103ED00000215148FFF703FD04214F48FFF7C9FBBC
:103EE00008214D48FFF7BDFB4B48FFF7B0FB40F200
:103EF00005314948FFF75EFD002211462520FCF7F9
:103F000050FBFFF779FF10BD70B504460D4600BFAA
:103F1000474800780128FBD02A462146434801F053
:103F2000A6FB07214048FCF7C0FE2A4607213E4871
:103F3000FCF7BEFD07213C48FCF7A7FE01203C49E9
:103F4000087070BD10B5044621463348FFF7FFFBEB
:103F500000BF07213048FFF704FD0028F9D010BD4D
:103F600070B504460D4603E014F8010BFFF7EAFFB5
:103F7000281EA5F10105F7D170BD10B5044603E078
:103F800014F8010BFFF7DEFF20780028F8D110BDF0
:103F900010B524492048FFF727FD50B121491E489C
:103FA000FFF73EFD1C48FFF7D6FBC4B2204600F0E9
:103FB0004EFA10BD10B5202207211B48FCF7ACFFBC
:103FC00070B1202207211848FDF7A8F82022072108
:103FD0001548FCF744FF00201549087000F0E2F98D
:103FE00010BD2DE9F04106460F4690461D46FDF7EF
:103FF00070F92846FDF7B7F9002406E056F82410BA
:104000002819FDF750FA201D84B2BC42F6DBFDF7FB
:104010006DF9BDE8F0810000001001400000024091
:104020000044004005030500006402406C000020CD
:104030001000002010B540F60240FDF7E5FE042315
:10404000002211464E48FDF7BAFC40F60240FDF74B
:10405000DBFE0823002211464948FDF7B0FC40F67C
:104060000240FDF7D1FE1023002211464448FDF71F
:10407000A6FC40F60240FDF7C7FE202300221146B1
:104080003F48FDF79CFC40F60240FDF7BDFE802353
:10409000002211463A48FDF792FC40F60240FDF737
:1040A000B3FE4FF48073002211463548FDF787FCBC
:1040B00040F60240FDF7A8FE4FF4007300221146BF
:1040C0002F48FDF77CFC40F60340FDF79DFE4023A2
:1040D000002211462B48FDF772FC40F60340FDF725
:1040E00093FE0123002211462648FDF768FC40F6A6
:1040F0000340FDF789FE0223002211462148FDF707
:104100005EFC10BD014600200B2936D2DFE801F02D
:1041100035060A0F14191E23282C30001A4A12687B
:10412000D0B22BE0184A121D1268D0B226E0164A0F
:1041300008321268D0B221E0134A0C321268D0B2B1
:104140001CE0114A14321268D0B217E00E4A18323D
:104150001268D0B212E00C4A1C321268D0B20DE0E4
:104160000A4A1268D0B209E0084A1268D0B205E0E3
:10417000064A121D1268D0B200E000BF00BF7047AF
:1041800000080240000C0240080241420082414205
:1041900070B504460D4641F20E10FDF735FE0026BF
:1041A00005B900E00126082C71D2DFE804F07004A4
:1041B000132231404F5F02210846FEF7B6F932461E
:1041C00000210420FCF7D6FF022200210820FCF782
:1041D000E8F95DE003210220FEF7A7F9324600214D
:1041E0000820FCF7C7FF032202210920FCF7D9F9B8
:1041F0004EE004210220FEF798F9324600211020FB
:10420000FCF7B8FF022200210A20FCF7CAF93FE0C0
:1042100005210220FEF789F9324600212020FCF713
:10422000A9FF022200211720FCF7BBF930E007218B
:104230000220FEF77AF9324600218020FCF79AFF2F
:10424000022200211720FCF7ACF921E0082102200E
:10425000FEF76BF9324600214FF48070FCF78AFFBD
:10426000022200211720FCF79CF911E0092102200D
:10427000FEF75BF9324600214FF40070FCF77AFF3D
:10428000022200211720FCF78CF901E0FFE700BFB4
:1042900000BF70BD70B504460D4665B1344951F894
:1042A000240000221146FCF765FF314951F8240033
:1042B000FDF700F804E02E4951F82400FCF7FAFF5E
:1042C00070BD10B50120FCF7EBFF10B10120FCF729
:1042D000F1FF10BD10B50220FCF7E2FF10B1022083
:1042E000FCF7E8FF10BD10B50420FCF7D9FF10B1B2
:1042F0000420FCF7DFFF10BD10B50820FCF7D0FF4D
:1043000010B10820FCF7D6FF10BD10B51020FCF747
:10431000C7FF10B11020FCF7CDFF10BD10B5202055
:10432000FCF7BEFF10B12020FCF7C4FF4020FCF7D3
:10433000B7FF10B14020FCF7BDFF8020FCF7B0FFB5
:1043400010B18020FCF7B6FF4FF48070FCF7A8FF97
:1043500018B14FF48070FCF7ADFF4FF40070FCF71C
:104360009FFF18B14FF40070FCF7A4FF10BD0000D0
:104370006858000870B505460C46FDF7C9FB28468D
:10438000FDF7D4FB2046FDF7EAFBFDF703FCFDF744
:10439000C8FB70BD10B5FDF7FDFB10BD0220EA495A
:1043A000087070470020E8490870704733B502462E
:1043B000FF21FF23002409E012F8010B80EA030427
:1043C000E248005D80EA0103E148015DBDF8045068
:1043D000681E80B20190002DEED101A841700370DB
:1043E000BDF804003CBDF0B5FF22FF230E460024BB
:1043F000054609E010F8017B87EA0304D34F3F5DCF
:1044000087EA0203D24F3A5D371EA6F1010C1FFA6C
:104410008CF6EFD16A544F1CEB55F0BD38B505460C
:104420000C46002000906846A11E695C4170611E28
:10443000695C0170A01E81B22846FFF7B7FFBDF886
:104440000010884201D1012038BD0020FCE710B5E2
:104450000446BD48007888B9BE4804700120BE49B2
:1044600008800021BD48FEF716FA00BFBB48FEF7E2
:10447000D7F900BF0120B449087016E0B2480078AF
:10448000012812D1B4490888411CB34A1180B149AE
:104490000C5410460088B0F5806F02DB00201146F6
:1044A00008800021AD48FEF7F6F910BD7CB5054641
:1044B0000C46AB4903C9CDE9000145F080008DF8F9
:1044C00001008DF8024003216846FFF78CFF0521AB
:1044D0006846FFF719FD7CBD10B504219D48FFF724
:1044E00013FDC820FFF713FB01209E49087010BD83
:1044F0000146002070472DE9FC4701A895498978BD
:1045000041709449C97801706846924909794170AF
:104510009049497901708F4890F80690BDF80400E1
:10452000642190FBF1F0C4B2BDF8040090FBF1F2FD
:1045300001FB1200C5B2BDF800002844C1B22046FC
:1045400000F0E0FB28B902211020FFF7AFFFBDE823
:10455000FC87854850F8240000EB45067D4FFF1D81
:104560004A463946304601F082F8052C0DD17E4985
:10457000486900F0FDFB8046B8F1000F04D04146C9
:104580001020FFF793FFE2E700BF06217148FFF715
:104590002AFF08216F48FFF7B7FC00BFD7E72DE9D6
:1045A000FC4101A86B49897841706A49C97801705A
:1045B0006846684909794170664949790170BDF8D2
:1045C0000400642190FBF1F0C4B2BDF8040090FB3C
:1045D000F1F201FB1200C5B22946204600F092FB21
:1045E00028B902210620FFF761FFBDE8FC815E4883
:1045F00050F8240000EB4506052C0BD15A494869B8
:1046000000F0B6FB074627B139460620FFF74EFFFC
:10461000EBE700BFBDF80000308008214D48FFF7F0
:1046200073FC00BFE1E770472DE9FC4101A849494F
:10463000897841704749C9780170684645490979C8
:104640004170444949790170BDF800004006000EF0
:1046500040498870BDF80400642190FBF1F0C4B2B9
:10466000BDF8040090FBF1F201FB1200C5B2BDF8E9
:1046700000002844C1B2204600F044FB28B90221C2
:104680000320FFF713FFBDE8FC81032C05D1BDF823
:104690000000C1B22846FFF7C6FF334850F8240097
:1046A00000EB45062B4FFF1CBDF8000042003146D1
:1046B000384600F0DCFFF81E8078C11CF81EFFF7BA
:1046C00092FEF81E8078411DF81EFFF71DFC00BF0A
:1046D000D9E710B500241C480078022831D1032006
:1046E000194908701B4800780B2802D00020087078
:1046F00010BD194801881748FFF790FE18B900202F
:1047000011490870F4E700BF12484078032806D02A
:10471000062807D0102808D064280CD108E0FFF73D
:1047200083FF08E0FFF73BFF05E0FFF7E4FE02E050
:10473000FFF7D2FE00BF00BF00BF0420024908708F
:1047400000BF00BFD4E7000012000020845800081A
:10475000845900086C010020140000200010004063
:10476000845A000802000020300000200020F84990
:10477000087070470220F6490870704710B504466B
:10478000F3480078052811D1F24804700120F2495D
:10479000088000BFF148FEF743F800BF0021EF4852
:1047A000FEF779F80120EA49087016E0E848007839
:1047B000012812D1E8490888411CE74A1180E549DF
:1047C0000C5410460088B0F5806F06DB00201146BF
:1047D00008800021E148FEF75EF810BD2DE9F041A8
:1047E00005460E46174600240CE0295DDC48FEF71E
:1047F000AEFF00BF0621DA48FFF7B3F80128F9D170
:10480000601CC4B2BC42F0DB3146D548FEF79FFFC6
:1048100000BF0621D248FFF7A4F80128F9D13612CB
:104820003146CF48FEF793FF00BF0621CC48FFF783
:1048300098F80128F9D1BDE8F08130B502460B4661
:104840004FF6FF70002112E0555C684008240AE032
:1048500000F0010525B140104AF20105684000E072
:104860004010651EECB2002CF2D14D1CA9B2994249
:10487000EADB30BD2DE9FC4105460E461446B4483E
:104880000078002860D10420B1490870B54800784C
:104890008DF8000003208DF80100280A8DF8020031
:1048A000E8B28DF80300300A8DF80400F0B28DF8FC
:1048B000050006216846FFF7C0FF804606224146F4
:1048C0006846FFF78BFF0520A1490870A6480068DD
:1048D000470814E0A4480068C7EB500040F6B83120
:1048E00088420CD934B1032099490870002211463E
:1048F0000B20A047002096490870BDE8FC81944831
:1049000000780228E6D19348407800F0800058B142
:1049100034B103208E490870002211460420A047BC
:1049200000208B490870E8E754B1032088490870DB
:104930008948028887490B20A047002084490870D5
:1049400000208349087000BF00BFD6E72DE9FC4175
:1049500004460D467E480078002846D104207C4954
:104960000870804800788DF8000006208DF801005E
:10497000200A8DF80200E0B28DF80300280A8DF8B5
:104980000400E8B28DF8050006216846FFF755FFE0
:104990000746062239466846FFF720FF05206C4986
:1049A00008707148006846080DE06F480068C6EB63
:1049B000500040F6B831884205D90020644908709B
:1049C0000B20BDE8FC81624800780228EDD16148E7
:1049D000407800F0800020B100205D49087004207C
:1049E000EFE700205A490870EBE70720E9E7FEB53A
:1049F00005460C4656480078002854D104205449F6
:104A00000870584800788DF8000010208DF80100DB
:104A1000280A8DF80200E8B28DF8030000208DF816
:104A2000040002208DF8050004208DF80600200AFD
:104A30008DF80700E0B28DF80800200E8DF809000F
:104A4000200C8DF80A000B216846FFF7F6FE07469A
:104A50000B2239466846FFF7C1FE05203C49087025
:104A60004148006846080CE03F480068C6EB50002B
:104A700040F6B831884204D90020354908700B202F
:104A8000FEBD334800780228EED13248407800F06D
:104A9000800020B100202E4908700420F0E700209B
:104AA0002B490870ECE70720EAE7FEB504460D46FF
:104AB0002748007800285FD10420254908702B483A
:104AC00000788DF8000010208DF80100200A8DF884
:104AD0000200E0B28DF8030000208DF804000120F0
:104AE0008DF8050002208DF80600280A8DF80700D1
:104AF000E8B28DF8080009216846FFF79EFE0746D8
:104B0000092239466846FFF769FE052010490870FA
:104B10001548006846080CE013480068C6EB5000D2
:104B200040F6B831884204D90020094908700B20AA
:104B3000FEBD074800780228EED10648407800F014
:104B40008000A8B10020024908700420F0E70000AE
:104B5000160000206C050020180000200014004002
:104B60000044004000000020240C00400100002010
:104B7000002060490870DBE70720D9E72DE9FF47EF
:104B800004460D4616461F465A48007800285DD157
:104B9000042058490870584800788DF8000010200B
:104BA0008DF80100200A8DF80200E0B28DF80300B4
:104BB00000208DF8040003208DF8050006208DF8F4
:104BC0000600280A8DF80700E8B28DF80800300AC0
:104BD0008DF80900F0B28DF80A00380A8DF80B0044
:104BE000F8B28DF80C000D216846FFF726FE8146CD
:104BF0000D2249466846FFF7F1FD05203D49087042
:104C00003E4800684FEA50080EE03C480068C8EB98
:104C1000500040F6B831884206D900203549087066
:104C20000B2004B0BDE8F087324800780228ECD1B0
:104C30003348407800F0800020B100202D490870F2
:104C40000420EEE700202B490870EAE70720E8E798
:104C50002DE9FC4104460D4626480078002846D13F
:104C6000042024490870244800788DF800000420AE
:104C70008DF80100200A8DF80200E0B28DF80300E3
:104C8000280A8DF80400E8B28DF805000621684670
:104C9000FFF7D3FD0746062239466846FFF79EFD1B
:104CA0000520144908701548006846080DE01348AF
:104CB0000068C6EB500040F6B831884205D90020A4
:104CC0000C4908700B20BDE8FC810A4800780228D6
:104CD000EDD10B48407800F0800020B1002005495C
:104CE00008700420EFE7002002490870EBE7072076
:104CF000E9E700001600002001000020240C00401D
:104D00006C05002002461C2A01D30020704704488D
:104D1000805C884201DC0020F8E70120F6E7000013
:104D20004C00002010B5FEF791FFBC498988642231
:104D300001FB02F0FFF797F80A20FEF709FF4FF496
:104D4000E130FEF7FBFF0A20FEF742FF3220FEF7BC
:104D50009EFFFFF76FF941F288310420FFF70AFB4D
:104D6000AF48807D20F010001030AD49887510BD2F
:104D700010B5044600200AE034F810104AF2A5529B
:104D8000914202D1A749087003E0411CC8B208282B
:104D9000F2DB00BF1021204600F0AEFC1622A04935
:104DA000A14800F064FC9F480078A8B99C48807D29
:104DB00000F00300032801D1042010BD9848807D35
:104DC00000F00300012805D09548807D00F0030025
:104DD000022801D10720F0E792480078012807D186
:104DE0008F48807D00F00300022801D00720E4E70F
:104DF0008C480078062807D18948807D00F00300A0
:104E0000032801D00720D8E78548807D20F00300E3
:104E1000401C834988750020CFE78149897D21F0B6
:104E20000301C91C7E4A91751146087670477C487B
:104E3000807D20F003007A49887500200876FF20E5
:104E40007849087070477648807D20F003007449E7
:104E50008875FF2073490870704710B500F0F9F8A5
:104E6000C4B254B900BF6E48807D20F00300801C9E
:104E70006B498875FF206B49087010BD10B500F0B4
:104E8000EBF8C4B264B900BF6548807D20F0030030
:104E9000C01C6349887510200876FF20614908709E
:104EA00010BD012080F3138800BF00BFBFF34F8FF8
:104EB0005E48006800F4E0605D490843001D5B49FE
:104EC0000860BFF34F8F00BF00BFFEE710B572B69A
:104ED0005848006840685849086056490968086899
:104EE00080F3088800BF54480068804710BD00BFA9
:104EF000704730B58BB000200A904B4800780928E5
:104F000044D2DFE800F04305194343432F2D2E0020
:104F10000AA80290444801690091808AADF8040013
:104F20001622414904A800F0A2FB04A80FC800F013
:104F30006BF90446414D2EE00AA802903A480169F7
:104F40000091808AADF804001622374904A800F0C9
:104F50008EFB04A80FC800F015F90446384D1AE07E
:104F600019E018E00AA802902F4801690091808A90
:104F7000ADF8040016222C4904A800F078FB04A820
:104F80000FC800F086FA04462E4D04E002240620E5
:104F90000A902D4D00BF00BF022C18D1A8479DF8E4
:104FA000280038B91E48807D20F00300801C1C4971
:104FB000887509E01A48807D20F00300C01C18495C
:104FC00088759DF828000876FF20164908700BB0F8
:104FD00030BD10B51248807D00F0030001281CD1BF
:104FE00010480078082816D2DFE800F004071515ED
:104FF0000D100A13FFF77DFF0EE0FFF724FF0BE013
:10500000FFF715FF08E0FFF728FF05E0FFF736FF81
:1050100002E0FFF746FF00BF00BF10BD1C000020EC
:1050200078060020540000206A0700200CED00E004
:105030000000FA055C0000205800002043520008E0
:1050400075510008E5530008EF4E00084FF0FF309F
:1050500070474FF0FF3070474FF0FF30704770B52A
:1050600005460C4605EB8500400094FBF0F086B247
:10507000304600F01AF9642104FB01F000F023F936
:1050800000F0FFF8002070BD2DE9F04107460D4605
:1050900016461C4605EB8500400094FBF0F01FFA15
:1050A00080F8404600F001F906EB8600400094FBD2
:1050B000F0F01FFA80F8404600F0FEF8642104FB8F
:1050C00001F000F000F9384600F004F90020BDE8D6
:1050D000F0812DE9F04107460D4616461C4605EBCA
:1050E0008500400094FBF0F01FFA80F8404600F085
:1050F000DCF806EB8600400094FBF0F01FFA80F825
:10510000404600F0D9F8642104FB01F000F0DBF820
:10511000384600F0E6F80020BDE8F0812DE9F041C6
:1051200005460E46144605EB8500400094FBF0F062
:1051300087B2384600F0B9F806EB8600400094FBD1
:10514000F0F087B2384600F0B7F8271E01DB394689
:1051500000E07942642201FB02F000F0B4F8002C78
:1051600002DD00F088F801E000F08BF80020BDE8D7
:10517000F081000000201E490870704700201D4982
:105180000870704770B5069C1948007830BB012044
:105190001749087006211848FEF7F2FBFFF7EEFFEB
:1051A0000120144908701E21FFF759FF0025002631
:1051B00000BF3046711C8EB2C82802DB022020706E
:1051C0000DE06420FEF7A3FC00F0A0F8054605F012
:1051D00002000228EDD000200649087000BF02201E
:1051E00003490870FFF7CAFF0148007870BD00004E
:1051F00060000020610000200044004000BF00BFAC
:10520000704700BF00BF70470FB410B5089C0F482F
:10521000007878B901200D490870BDF80A0001280E
:1052200002D1FFF7EBFF05E0BDF80A00022801D12B
:10523000FFF7E7FF002020700448007810BC5DF8FD
:1052400014FB002001490870704700006200002034
:1052500010B50021D420FFF779FB10BD10B5012156
:10526000D420FFF773FB10BD10B500220121A3204D
:10527000FFF700FB10BD10B50121C820FFF766FB4A
:1052800010BD10B540F20111C820FFF75FFB10BD43
:1052900010B50021C820FFF759FB10BD10B54FF421
:1052A0008071C820FFF752FB10BD10B5044621469F
:1052B0009820FFF74BFB10BD10B5044621469920FE
:1052C000FFF744FB10BD10B504462146D820FFF778
:1052D0008EFB10BD10B504462146CE20FFF787FB9C
:1052E00010BD10B504462146D020FFF780FB10BD4D
:1052F00010B50021D220FFF77AFB10BD10B50023B6
:10530000344C2370CB78344C237010BD10B5012081
:1053100030490870314A01210620FFF7ABFA00BF7F
:105320002C4800780028FBD12B48007810BD10B520
:10533000044621464FF47A70FFF7B7FB10BD10B555
:1053400001214FF4FA60FFF783FC10BD10B5032173
:105350004FF4FA60FFF77CFC10BD10B5FFF7EFFFCC
:105360001F48407910BD10B5FFF7F0FF1C48407989
:1053700010BD10B503214FF4FA60FFF769FC10BDB2
:1053800010B50024FFF7E2FF1548407900F0F10066
:10539000F1280BD003E00A20FEF7B9FB641CFFF7ED
:1053A000E2FFF12801D0322CF5DB00BF10BD2DE962
:1053B000F04104460D46164646EA05274FEA042802
:1053C0003B46424609214FF47A70FFF7D7FBBDE810
:1053D000F08100006300002064000020FD520008FE
:1053E0006C050020002098490870704700209749FC
:1053F0000870974908709749087097490870704776
:1054000010B5044603E04FF47A70FEF780FB201ECF
:10541000A4F101018CB2F6D110BD2DE9F041054691
:105420000C468E480068460827E02846FEF76AFECC
:1054300007460FB30A20FEF76AFB2846FEF762FE16
:10544000D0B100BF4FF47A7094FBF0F01FFA80F8EF
:105450004046FFF7D5FF4FF47A7094FBF0F100FB64
:1054600011401FFA80F84046FEF751FB00BFFFF7DE
:105470000FFF0020BDE8F08100BF78480068C6EB50
:10548000500044F620618842CFD3FFF701FF02208D
:10549000F0E70FB470B50A9C6B48007800287CD107
:1054A00001206949087006216D48FEF769FAFFF787
:1054B0009DFFBDF81200012814D1BDF81400022888
:1054C00006D14FF4967278210846FFF727FE1DE0BB
:1054D000BDF81400012819D1624A78210846FFF767
:1054E0001DFE13E0BDF81400012806D14FF496729A
:1054F00078210846FFF712FE08E0BDF814000228E4
:1055000004D1584A78210846FFF708FEBDF812007A
:10551000012806D002280DD0032814D0042838D141
:105520002CE00120504908704FF47A61FFF775FFB5
:10553000207033E002204C4908704FF41661FFF7E9
:105540006CFF20702AE00320474908704FF416656D
:105550004FF47A7095FBF0F086B23046FFF750FFBB
:105560004FF47A7095FBF0F100FB115086B2304693
:10557000FEF7CDFA00BFFFF78BFE0BE004203A499F
:10558000087040F63C710320FFF747FF207005E0EC
:1055900003E000BF00BFFFF77BFE00BF02202A49E7
:1055A0000870FFF723FF2848007870BC5DF814FBF3
:1055B00010B52548007801280DD12B480078012826
:1055C00009D16420FEF75BFA0120FEF79BFD01285C
:1055D00001D12149087010BD10B51B480078012881
:1055E0001CD121480078022818D16420FEF747FA20
:1055F0000220FEF787FD012805D11448007810B974
:105600000120124908700120FEF77CFD012805D118
:105610000E480078012801D10F49087010BD10B55F
:105620000948007801280DD10F480078042809D1D5
:105630006420FEF724FA0320FEF764FD012801D15F
:105640000549087010BD00006500002067000020BB
:1056500068000020690000206A000020240C00403F
:1056600000440040D4FEFFFF660000207047032A7C
:1056700040F2308010F0030C00F0158011F8013B6F
:10568000BCF1020F624498BF11F801CB00F8013B56
:1056900038BF11F8013BA2F1040298BF00F801CB1A
:1056A00038BF00F8013B11F0030300F04B80083ACB
:1056B000C0F0088051F8043B083A51F804CBA0E848
:1056C0000810F5E7121D5CBF51F8043B40F8043B9D
:1056D000AFF30080D20724BF11F8013B11F801CBD2
:1056E00048BF11F8012B24BF00F8013B00F801CBA3
:1056F00048BF00F8012B70474FF000020429C0F0AA
:10570000128010F0030C00F05180CCF1040CBCF1BD
:10571000020F18BF00F8012BA8BF20F8022BA1EB45
:105720000C0100F043B85FEAC17C24BF00F8012BF4
:1057300000F8012B48BF00F8012B704770477047F5
:105740007047704710B5203AC0F00B80B1E8185090
:10575000203AA0E81850B1E81850A0E81850BFF45B
:10576000F5AF5FEA027C24BFB1E81850A0E81850FA
:1057700044BF18C918C0BDE810405FEA827C24BF4E
:1057800051F8043B40F8043B08BF7047D20728BFDC
:1057900031F8023B48BF11F8012B28BF20F8023B2B
:1057A00048BF00F8012B70474FF0000200B51346C8
:1057B00094469646203922BFA0E80C50A0E80C5031
:1057C000B1F12001BFF4F7AF090728BFA0E80C50E2
:1057D00048BF0CC05DF804EB890028BF40F8042BDB
:1057E00008BF704748BF20F8022B11F0804F18BF48
:1057F00000F8012B7047754600F02CF8AE46050006
:105800006946534620F00700854618B020B5FAF7E0
:10581000B1FEBDE820404FF000064FF000074FF00A
:1058200000084FF0000B21F00701AC46ACE8C009BE
:10583000ACE8C009ACE8C009ACE8C0098D467047C7
:1058400010B50446AFF300802046BDE81040FAF7DB
:10585000E0BC000000487047800700204FF0407017
:10586000E1EE100A7047000004000000080000008C
:105870001000000020000000800000000001000077
:105880000002000000C1814001C0804101C0804190
:1058900000C1814001C0804100C1814000C1814000
:1058A00001C0804101C0804100C1814000C18140F0
:1058B00001C0804100C1814001C0804101C08041E0
:1058C00000C1814001C0804100C1814000C18140D0
:1058D00001C0804100C1814001C0804101C08041C0
:1058E00000C1814000C1814001C0804101C08041B0
:1058F00000C1814001C0804100C1814000C18140A0
:1059000001C0804101C0804100C1814000C181408F
:1059100001C0804100C1814001C0804101C080417F
:1059200000C1814000C1814001C0804101C080416F
:1059300000C1814001C0804100C1814000C181405F
:1059400001C0804100C1814001C0804101C080414F
:1059500000C1814001C0804100C1814000C181403F
:1059600001C0804101C0804100C1814000C181402F
:1059700001C0804100C1814001C0804101C080411F
:1059800000C1814000C0C101C30302C2C60607C7EF
:1059900005C5C404CC0C0DCD0FCFCE0E0ACACB0B5F
:1059A000C90908C8D81819D91BDBDA1A1EDEDF1F8F
:1059B000DD1D1CDC14D4D515D71716D6D21213D37F
:1059C00011D1D010F03031F133F3F23236F6F7372F
:1059D000F53534F43CFCFD3DFF3F3EFEFA3A3BFB1F
:1059E00039F9F83828E8E929EB2B2AEAEE2E2FEFCF
:1059F0002DEDEC2CE42425E527E7E62622E2E3233F
:105A0000E12120E0A06061A163A3A26266A6A7676E
:105A1000A56564A46CACAD6DAF6F6EAEAA6A6BABDE
:105A200069A9A86878B8B979BB7B7ABABE7E7FBF0E
:105A30007DBDBC7CB47475B577B7B67672B2B373FE
:105A4000B17170B0509091519353529296565797AE
:105A5000559594549C5C5D9D5F9F9E5E5A9A9B5B9E
:105A600099595898884849894B8B8A4A4E8E8F4F4E
:105A70008D4D4C8C448485458747468682424383BE
:105A8000418180400B00000000000000AC5A00087B
:105A9000000000206C000000BC010008185B00083A
:105AA0006C000020740D0000D801000801090000FE
:105AB000007A030A0000000000000000000000005F
:105AC000000000000000000000000206800400004A
:105AD0000000000000000000000000001C0000208A
